:1000000030030020A93A00006D3600006D36000074
:1000100000000000000000000000000000000000E0
:100020000000000000000000000000009736000003
:100030000000000000000000973600004B36000072
:10004000B9360000DD36000001370000253700001A
:1000500049370000000000006F3700008F370000B4
:10006000B1370000D5370000F93700001D38000017
:10007000413800006338000083380000A7380000D2
:10008000C7380000E93800000D390000333900009E
:1000900055390000793900009D390000C139000050
:1000A000E5390000093A00000000000000000000EF
:1000B0000000000000000000000000000000000040
:1000C000E8000000FFFF1F2D2D2D204D6563726994
:1000D00073702D5374656C6C6172697320322E34A9
:1000E0002E36202D2D2DC046000100004200043286
:1000F000647570003868043F3E60043F38607047A4
:10010000140100006200053264726F70043740CF42
:100110007047C046340100004400053273776170B7
:1001200007CF043F3860043F3E60043F3A600E0052
:100130007047C04648010000620004326E697000DA
:1001400007CF043F38607047640100004400053267
:100150006F766572B868043F3E60043F3860FE68A1
:100160007047C04688010000440005327475636B17
:1001700007CF043F3860043F3E60043F3A60043FCD
:100180003960043F38607047AC010000460004321B
:10019000726F74003868B9683A69B86039613A605A
:1001A00079687E60FE68F9607047C046D001000043
:1001B000460005322D726F743868B9683A69386143
:1001C0003960BA60F968FE607E6879607047C04641
:1001D000E4010000200003323E7201CF01B440B4BC
:1001E00040CF7047FC01000020000332723E043F04
:1001F0003E6040BC01BC043F386070471402000000
:10020000200003327240043F3E60019E043F3E6086
:10021000009E704728020000200006327264726F50
:10022000700002B07047C046400200004200036404
:10023000322F3868F107761040080843386070475D
:100240005402000062000364322A386800187641C4
:1002500038607047700200004200046473687200E6
:100260003868F10776084008084338607047C04690
:10027000880200006200046473686C00386800182B
:10028000764138607047C0469C020000420004641A
:1002900061627300002E08D47047C046BC020000A3
:1002A000420007646E656761746538680021C04369
:1002B000F64301304E4138607047C046D40200001A
:1002C000640002642D0007CF121AB1410E00043FF2
:1002D0003A607047EC020000640002642B0007CF14
:1002E00012184E41043F3A607047C04600030000B8
:1002F000610003733E64043F3E60F6177047C046DA
:1003000014030000420003756D2A01CF320000265D
:1003100013E0C046280300004200026D2A003000AE
:10032000F61704CFD11705E06803000044000375F9
:10033000642A07CF564341437618010C130C5943E6
:100340007618010C80B292B25143434350430022CD
:10035000C91852411204B6180A04090C80184E41FB
:10036000043F38607047C046FC0300004400047539
:10037000646D2A0010B50024043F3E607E68043F8F
:100380003E603E69FFF7C1FF310040CF300040CFF3
:10039000043F3E603E68043F3E60FE6803B4FFF7E2
:1003A000B4FF03BC330040CF320040CF043F3E6077
:1003B0003E68043F3E603E690FB4FFF7A6FF0FBCE6
:1003C0009219634140CF89196241634140CF043F94
:1003D0003E607E68043F3E60FE680FB4FFF795FF05
:1003E0000FBC9219634140CF89196241634140CFEC
:1003F0001E003A607960B86010BDC046200400005D
:100400004300022A2F0000B540B440CFFFF787FF1A
:10041000043F3E6040BC00F04FF8043700BDC046CA
:10042000440400004300052A2F6D6F6400B540B4FA
:1004300040CFFFF774FF043F3E6040BC00F03CF843
:1004400000BDC04668040000430003752A2F00B5B4
:1004500040B440CFFFF759FF043F3E6040BC00F07E
:100460001CF8043700BDC0468C040000430006752C
:100470002A2F6D6F640000B540B440CFFFF745FFF1
:10048000043F3E6040BC00F008F800BDAC04000032
:10049000430006756D2F6D6F640000B5043F3E602C
:1004A000002600F01AF840CF043700BDCC0400004D
:1004B0004300056D2F6D6F6400B5043F3E60F61775
:1004C00000F034F840CF043700BDC04620050000DE
:1004D00044000675642F6D6F640030B40023002261
:1004E0007968B86835003C6840264000494152416F
:1004F0005B41AB4202D804D3A24202D3121BAB41F0
:100500000130013EF1D10E0038607B60BA6030BC32
:10051000704730B400237A68B9680020E2E7C0462B
:1005200098050000440005642F6D6F6400B5F01756
:1005300019D0FFF7BAFEFFF7F3FDF0170CD0FFF765
:10054000B4FEFFF7EDFDFFF7C8FFFFF7E9FDFFF78A
:10055000ACFEFFF7E5FD00BDFFF7E2FDFFF7BDFFD5
:10056000FFF7A3FE00BDFFF7DBFDF0170ED0FFF78E
:100570009CFEFFF7D5FDFFF7B0FFFFF796FEFFF7F4
:10058000CFFDFFF792FEFFF7CBFD00BDFFF7C8FDE3
:10059000FFF7A3FF00BDC046B005000044000264A1
:1005A0002F0000B5FFF7C2FFFFF7CAFD00BDC04630
:1005B000F8050000440002662A0000B5F0170DD0CF
:1005C000FFF773FEFFF7ACFDF0170DD0FFF76DFEE0
:1005D000FFF7D0FE40CF01CF386000BDFFF7A0FD90
:1005E000F017F5D0FFF761FEFFF7C4FE40CF01CF53
:1005F0003860FFF75AFE00BD440600004400026662
:100600002F0000B5F0170ED0FFF74FFEFFF788FD63
:10061000F0170ED0FFF749FEFFF782FDFFF779FFD5
:10062000FFF78EFD00BDFFF77BFDF017F4D0FFF75D
:100630003CFEFFF775FDFFF76CFFFFF736FEFFF797
:100640007FFD00BD5806000020000232210006CFC9
:100650003160726040CF70476C06000020000232AB
:100660004000043F706838603668704780060000BC
:1006700044000364753C07CF121AB141B64170477C
:100680009406000044000364753E07CF801A8E4133
:10069000B6417047AC060000440002643C0007CF3E
:1006A000121AB1410DDB00267047C046C806000093
:1006B000440002643E0007CF801A8E4101DB002611
:1006C00070470026F6437047D806000062000364B6
:1006D000303C0437F6177047EC06000062000364F4
:1006E000303D01CF0643013EB64170470807000088
:1006F000440003643C3E07CF50404E400643013E59
:10070000B641F6437047C04620070000440002642B
:100710003D0007CF50404E400643013EB641704772
:1007200034070000200003737040043F3E603E0029
:100730007047C04644070000200003737021370053
:1007400040CF704758070000200003727040043FFC
:100750003E606E467047C046680700002000037286
:100760007021B54640CF70477807000061000364F0
:100770007570043F3E6070478807000061000464A4
:10078000726F700040CF7047A00700006100043F07
:1007900064757000002E01D0043F3E607047C04673
:1007A000B4070000620004737761700039683E602E
:1007B0000E007047C40700006200036E69700437C2
:1007C0007047C046D80700006200046F766572006B
:1007D000043F3E607E687047F007000062000474CA
:1007E00075636B0001CF083F7E6038607047C0467C
:1007F00008080000630003726F7403CF083F78603D
:100800003E600E007047C046200800006300042DC3
:10081000726F740003CF083F7E6039600600704736
:10082000340800002000047069636B00B0003E587B
:100830007047C0464C08000000000564657074688D
:10084000C749C91B043F3E608E0870476808000016
:1008500000000672646570746800043F3E606E4676
:10086000C049891B8E087047780800002000023EAE
:10087000720040B440CF70478C0800002000027224
:100880003E00043F3E6040BC7047C046A0080000E8
:10089000200002724000043F3E60009E7047C04648
:1008A000B00800002000057264726F7001B07047DC
:1008B000C4080000200005727069636BB6006E44C6
:1008C00036687047D80800006A0003616E6401CF83
:1008D000064070470640C046EC0800006A0003620C
:1008E000696301CFB04306007047864300090000EA
:1008F0006A00026F720001CF064370470643C0468C
:10090000140900006A0003786F7201CF46407047F7
:100910004640C046240900006100036E6F74F64330
:100920007047C04644090000410003636C7A300000
:1009300006D00026400002D001D20136FAE7704707
:10094000202670475409000061000373687276081E
:100950007047C0466409000061000373686C76004C
:100960007047C04674090000610003726F72012075
:10097000C641704788090000610003726F6C002057
:10098000B61946417047C046A40900006C000672C3
:1009900073686966740001CFF0400600704736083E
:1009A0000026C046C00900006C00076172736869C8
:1009B000667401CF3041060070473610F617C04606
:1009C000DC0900006C00066C73686966740001CF76
:1009D000B0400600704736000026C046EC09000013
:1009E000610002303D00013EB6417047000A000040
:1009F000610003303C3E013EB641F6437047C046BD
:100A0000100A0000610002303C00F6177047C04633
:100A1000280A00006000047472756500043F3E609F
:100A20000026F6437047C0463C0A00006000056699
:100A3000616C7365043F3E6000267047500A0000F9
:100A40004200023E3D0001CFB042E9DA0026704785
:100A5000640A00004200023C3D0001CFB042DFDDED
:100A600000267047780A00004200013C01CFB042E6
:100A7000D6DB00267047C0468C0A00004200013ECB
:100A800001CFB042CCDC00267047C046A00A00006F
:100A9000620003753E3D01CF861BB641F6437047A9
:100AA000B40A0000620003753C3D01CF361AB6411E
:100AB000F6437047C80A0000620002753C0001CF8F
:100AC000861BB6417047C046DC0A00006200027512
:100AD0003E0001CF361AB6417047C046F40A000006
:100AE0006B00023C3E0001CF361A013EB641F64390
:100AF0007047C046080B00006B00013D01CF361A5D
:100B0000013EB6417047C0461C0B00006200036DF9
:100B1000696E01CFB04200DC06007047300B000068
:100B20006200036D617801CFB04200DB06007047C0
:100B3000480B0000620004756D61780001CFB0427F
:100B400000D306007047C046680B000062000475C1
:100B50006D696E0001CFB04200D8060070470000FA
:100B60003002002030030020A80B00000000046DBC
:100B70006F76650007B5310040CF320040CF0029C5
:100B80000FD0B2420DD006D3013E013A705C5054F2
:100B90000139FBD105E0307810700136013201399E
:100BA000F9D140CF07BDC046CC0B00000000046661
:100BB000696C6C00300040CF310040CF002902D07A
:100BC00001397054FCD140CF7047C046D80B0000AB
:100BD0002000014036687047F00B00006D000121D5
:100BE00003CF30600E0070470660704701607047A9
:100BF000180C00006D00022B210003CF3268121880
:100C000032600E00704702689219026070470268F5
:100C1000521802607047C046280C0000200002688D
:100C2000400036887047C046440C00006D000268E2
:100C3000210003CF30800E0070470680704701808E
:100C40007047C0466C0C00006D0003682B2103CF79
:100C50003288121832800E00704702889219028082
:100C600070470288521802807047C0467C0C000012
:100C700020000263400036787047C046980C0000A0
:100C80006D000263210003CF30700E0070470670C4
:100C9000704701707047C046C00C00006D000363D0
:100CA0002B2103CF3278121832700E007047027871
:100CB0009219027070470278521802707047C0464D
:100CC000E80C00006D0004626973210003CF3268F4
:100CD000024332600E007047026832430260704780
:100CE00002680A4302607047100D00006D00046244
:100CF0006963210003CF3268824332600E0070477F
:100D00000268B2430260704702688A43026070471B
:100D1000380D00006D0004786F72210003CF326837
:100D2000424032600E0070470268724002607047B5
:100D300002684A4002607047A00D0000680004622B
:100D40006974400001CF36680640013EB641F64363
:100D50007047C44A00B5012B0AD1043F3E6000260B
:100D600000F0ACFE043F3E60160001F03AFA11E0DC
:100D700002CF013B02F0A1FB043F3E603626164342
:100D800001F02FFA043F3E600E00043F3E60002653
:100D900000F094FE043F3E60B34E01F038F800BD11
:100DA000C80D00006D0005686269732103CF3288A9
:100DB000024332800E00704702883243028070473F
:100DC00002880A4302807047F00D00006D0005683C
:100DD0006269632103CF3288824332800E007047FC
:100DE0000288B2430280704702888A4302807047BB
:100DF000180E00006D000568786F722103CF3288ED
:100E0000424032800E007047028872400280704774
:100E100002884A4002807047380E0000680005686A
:100E20006269744001CF36880640013EB641F64300
:100E300070478E4A8EE7C046600E00006D00056365
:100E40006269732103CF3278024332700E0070471B
:100E5000027832430270704702780A43027070478A
:100E6000880E00006D0005636269632103CF32784C
:100E7000824332700E0070470278B24302707047AE
:100E800002788A4302707047B00E00006D0005635F
:100E9000786F722103CF3278424032700E00704773
:100EA000027872400270704702784A4002707047C0
:100EB000D00E0000680005636269744001CF367887
:100EC0000640013EB641F6437047694A42E7C046D4
:100ED000E00E000061000563656C6C2B0436704702
:100EE000F00E000061000563656C6C73B60070471E
:100EF0008C0F000000000768666C61736821300089
:100F000040CF310040CF5B4B984224D35A4B98429C
:100F100021D25A4B194099421CD001220240002A8A
:100F200019D102889A4216D1554A0123136002232F
:100F3000034004D0584003880904194301E0514B91
:100F400019430160504A136801201840FBD04C4AF5
:100F500000231360704700F063FC2A57726F6E67BE
:100F60002061646472657373206F722064617461C0
:100F700020666F722077726974696E6720666C6193
:100F8000736820210A0002F0BFFAC046CC0F0000AF
:100F900000000E666C6173687061676565726173ED
:100FA00065000FB5300040CF324B98420CD3344A25
:100FB00002231360354A1060334A13680120184039
:100FC000FBD02F4A002313600FBDC046481000001D
:100FD00000000A6572617365666C6173680025487C
:100FE00072B62549254A038893421CD0043F3E60CF
:100FF0000600043F3E6000F013FC1045726173650B
:1010000020626C6F636B20617420200000F080FC14
:1010100000F006FC0C2066726F6D20466C617368F0
:101020000A00FFF7BEFF02308842DCD100F0F8FB77
:101030001246696E69736865642E20526573657423
:1010400020210A0002F0EEFA9010000000000E6568
:1010500072617365666C61736866726F6D003000F3
:1010600040CFBDE700680000480D00000088000088
:10107000007800000040000000001000FFFF0000AA
:1010800004E501400000FFFF00E4014008E50140E5
:10109000A41000006900012B01CF361870473618E4
:1010A0000036C046B81000006900012D01CF861B34
:1010B0007047361A003EC046C81000006100023179
:1010C0002D00013E7047C046D8100000610002317B
:1010D0002B0001367047C046E81000006100023264
:1010E0002D00023E7047C046F81000006100023239
:1010F0002B0002367047C0460C1100006100066EDE
:1011000065676174650076427047C0462011000033
:10111000610003616273F017361846407047C0469D
:1011200068110000420005752F6D6F64310040CFDB
:10113000002903D1043F3E600026704701220023AE
:101140008E4206D9003104D45200490001D48E42A7
:10115000FAD88E4201D3761A134349085208F8D1BF
:10116000043F3E601E007047D81100004200042F6B
:101170006D6F640000B5300040CF002E1CDA76425F
:1011800000280CDA4042043F3E600600FFF7CEFF25
:10119000300040CF7642043F3E60060000BD043F71
:1011A0003E600600FFF7C2FF300040CF404276426B
:1011B000043F3E60060000BD002807DA4042043FBD
:1011C0003E600600FFF7B2FF764200BD043F3E607E
:1011D0000600FFF7ABFF00BDEC1100004200036DFD
:1011E0006F6400B5FFF7C6FF40CF00BD00120000DE
:1011F0004200012F00B5FFF7BDFF043700BDC04618
:10120000101200006A00012A01CF4643704746438E
:1012100020120000610002322A0076007047C046AA
:1012200030120000610002322F0076107047C04675
:10123000441200006100046576656E0001203040B4
:10124000361870475C12000081000462617365000B
:10125000043F3E60B04E70470A0000007412000068
:1012600000000662696E61727900AB48022101607C
:101270007047C0468C120000000007646563696D0A
:10128000616CA5480A2101607047C04660130000E8
:10129000000003686578A0481021016070479F48EE
:1012A0009F4901609F48A049016070479F480068BE
:1012B000FF21084001281DD19D4800680F210840EA
:1012C00018D19C480068F021084013D19A48006862
:1012D000F021084000D1E2E797480068F02108407B
:1012E000102800D1DBE794480068F021084030283E
:1012F00000D1D4E7704700B5FFF7D8FF8F480268E8
:1013000003210A4302608E49002008608D490120B4
:1013100008608B490B6801201840FBD08A494020A7
:1013200008608A490120086089490C2008608949C1
:1013300006200860884908200860884988480860B5
:1013400088490420086088490120086087490120F5
:10135000086087490020086086491420086000BDA5
:101360007C130000810009686F6F6B2D656D6974D7
:10137000043F3E60804E70477214000098130000D6
:10138000810008686F6F6B2D6B657900043F3E60CC
:101390007A4E70479E140000B813000081000A685E
:1013A0006F6F6B2D656D69743F00043F3E60744E36
:1013B0007047D0140000C046D413000081000968B3
:1013C0006F6F6B2D6B65793F043F3E606D4E7047CC
:1013D000FE140000F413000081000A686F6F6B2D8B
:1013E000706175736500043F3E60674E7047D2358B
:1013F0000000C0460C140000000004656D69740014
:101400000FB55D4800F029F80FBDC046201400005C
:101410000000036B65790FB5584800F01EF80FBD4A
:1014200034140000000005656D69743F544800687D
:101430008746C046481400000000046B65793F00F1
:10144000504800688746C0466014000000000570E0
:10145000617573654C480068874600688746C046DA
:101460008C14000000000B73657269616C2D656D52
:10147000697400B500F02CF8002E40CFFAD0434A32
:10148000002010603B4A167040CF00BDBC14000025
:1014900000000A73657269616C2D6B65790000B597
:1014A00000F02DF8002E40CFFAD0314A0020106015
:1014B000043F3E60364A167800BDC046EC1400007A
:1014C00000000C73657269616C2D656D69743F0075
:1014D00000B5FFF7BFFF043F3E6000262B4A1168AE
:1014E0000120014000D0F64300BDC0469415000025
:1014F00000000B73657269616C2D6B65793F00B5F7
:10150000FFF7A8FF043F3E600026194A116801203A
:10151000014000D0F64300BDFCFF0320040500405D
:10152000DFFF07C0186C004000800000E00F00F0F3
:10153000E40F00F0EC0F00F0E80F00F0240500408D
:10154000000100400000004008050050180700504E
:10155000200700500C2500401425004024250040A1
:1015600000E0D70100250040082000400020004096
:10157000082100401C250040F8FF0320F4FF032051
:10158000F0FF0320ECFF0320E8FF03201C210040B4
:1015900018250040B81500000000076365787065E5
:1015A000637400B5386801B40130386000F00BF89E
:1015B00001BC067040CF00BD30160000000006617F
:1015C00063636570740000B502CF01390022FFF734
:1015D00022FF300040CF7F2809D0202819D20928C7
:1015E00016D00A281FD00D281DD00828EFD1002AB8
:1015F000EDD000F015F903082008002AE7D0885C38
:10160000013A80230340E2D040230340F5D0DEE7D7
:101610002020B242DBD2043F3E600600FFF7F0FE1E
:1016200001328854D3E7160000F0A8F800BDC04688
:1016300044160000400003746962043F3E602B4E74
:101640007047C0465C1600008100033E696E043F8F
:101650003E60274E704700000000C0468416000020
:1016600082000E63757272656E742D736F7572638E
:101670006500043F3E601F4E704700000000680098
:101680000020C046A0160000000009736574736F47
:1016900075726365174802CF0660416040CF70479E
:1016A000C0160000000006736F7572636500043F8A
:1016B0003E60104E043F7068386036687047C04620
:1016C000F816000000000571756572790FB50848BD
:1016D00000210160FFF7B1FF043F3E60043F3E6020
:1016E000C826FFF770FFFFF7D5FF0FBD6800002089
:1016F000E4FF0320DCFF032048170000000007631D
:101700006F6D706172650FB5310040CF01CF8842B7
:1017100002D040CF00260FBD02CF002810D00138E4
:101720000A5C335C412A02D35B2A00D22032412B6F
:1017300002D35B2B00D220339A42EED000260FBD9D
:101740000026F6430FBDC0465C1700000000026390
:10175000720000B500F064F8010A00BD70170000C7
:10176000000002626C00043F3E6020267047C046C5
:10177000841700000000057370616365043F3E60DC
:1017800020263DE6A4170000000006737061636523
:10179000730000B5002E03DDFFF7F0FF013EFBD123
:1017A00040CF00BDB41700005000065B6368617253
:1017B0005D0005E0CC170000000004636861720062
:1017C00000B501F02FFB40CF367800BDDC170000DC
:1017D00050000128043F3E60292606E0F81700006B
:1017E0005000015C043F3E60002600B501F024FB80
:1017F000043740CF00BDC046401800003000022E24
:1018000022009F4800B5043F3E60060000F0F8F952
:10181000043F3E60222601F00FFB00F01CFD00BDDE
:101820000AB4043F3E607646013E3378012101331D
:1018300019405B187146C9188E460ABC3CE0C04688
:10184000681800003000026322008E48DAE7043F87
:101850003E607646013E33780121013319405B1822
:101860007146C9188E467047941800003000027304
:1018700022008548C6E7043F3E607646043F3E604E
:10188000013E36780121731C19405B187146C91856
:101890008E467047AC180000000005636F756E74CB
:1018A0000136043F3E60013E36787047D418000090
:1018B000000005637479706501B53078002807D0A1
:1018C0000136043F3E603678FFF79AFD0138F7D1C4
:1018D00040CF01BD04190000000004747970650058
:1018E000310040CF300040CF00B5002908D00022A1
:1018F000043F3E60865CFFF783FD01329142F7D1E1
:1019000000BDC046401900000000046865782E0044
:1019100007B5310040CF20200F220438043F3E603D
:101920000E00C6401640092E01D9373600E0303689
:10193000FFF766FD0028F0D1FFF720FF07BDC04686
:1019400050190000000003682E731FB54F4C0EE0C5
:1019500060190000000003752E731FB54C4C06E0A3
:10196000E01900000000022E73001FB5494C4A49DF
:10197000C91B8908494A106803B40A201060FFF7A0
:101980004FFF08537461636B3A205B00043F3E6075
:101990000E0001F03DFCFFF743FF025D200003BC99
:1019A0003E4A106000290AD03D4A106806B4043F40
:1019B0003E600600A04706BC043A0139F5D1FFF7A6
:1019C0002FFF0620544F533A2000043F3E6036005C
:1019D000A047FFF725FF04202A3E0A001FBDC0468E
:1019E000A41A0000000005776F72647300B5FFF75A
:1019F00017FF010A00F085FEFFF712FF094164643A
:101A0000726573733A20043F3E60FFF781FFFFF772
:101A100007FF064C696E6B3A2000043F3E60366853
:101A2000FFF776FFFFF7FCFE07466C6167733A200D
:101A3000043F3E60B688FFF76BFFFFF7F1FE0643F9
:101A40006F64653A2000B01D00F096FE043F3E60D2
:101A50000600FFF75DFFFFF7E3FE064E616D653A96
:101A60002000043F3E600636FFF726FFFFF7D8FE52
:101A7000010A00F05EFE300040CFBDD040CF00BD77
:101A8000201800004E180000761800001119000000
:101A9000FF3100001132000030020020FCFF032063
:101AA0002C020020F41B00000000107265676973AF
:101AB0007465726C69746572616C2C003FB5A64BDD
:101AC0003868184098420FD13868C043386040B435
:101AD00000F00DF8043F3E60A04E01BC0643C0007C
:101AE000064300F07EFB3FBD00F001F83FBD00B5AE
:101AF000350040CF2900C90029432D0298480543ED
:101B0000FF2300223000D040984301D00132F9E792
:101B10003000D04018402843043F3E60060000F0EB
:101B200060FB9048054318009040864310D0002485
:101B30003000E040984301D00134F9E7101B043F26
:101B40003E600E008001064300F04BFB2200DFE701
:101B5000002A06D0043F3E600E009201164300F0BA
:101B600040FB40CF00BD1FB5310040CF7E4C0C4341
:101B7000C9000C434901300040CF020EFF231A4038
:101B8000774B0B431343043F3E601E0000F029FBDC
:101B9000043F3E60260000F024FB020CFF231A40A5
:101BA000724B0B431343043F3E601E0000F019FBD1
:101BB000043F3E60260000F014FB020AFF231A4097
:101BC0006A4B0B431343043F3E601E0000F009FBC9
:101BD000043F3E60260000F004FB0200FF231A4091
:101BE000624B0B431343043F3E601E0000F0F9FAC2
:101BF0001FBDC046641C000000000563616C6C2CB6
:101C00000FB5330000F054FE300040CF1B1A043BE8
:101C10005749194000290ED0564A91420BD001363F
:101C2000043F3E600026FFF749FF043F3E60524EEE
:101C300000F0D7FA0FBD40CF5B085048504919401B
:101C40000843DB0A4F491940090408439B0A012154
:101C5000194089060843043F3E60060000F0EBFA95
:101C60000FBDC046981C00000000086C69746572C6
:101C7000616C2C0000B5043F3E60434E00F0B1FAA9
:101C8000043F3E60414E00F0ACFA043F3E60062641
:101C9000FFF714FF00BDC046C01C00000000066333
:101CA00072656174650000B500F03DF81C2000020B
:101CB000DF308047043F3E607646013E00BDC046AF
:101CC000181D0000200005646F65733E1C20000293
:101CD000DF308047043F3E607646013E7047043F58
:101CE0003E607646013E2A4A13682A490968022066
:101CF000084000D10231023111600136043F3E60DC
:101D00000026FFF730FF043F3E601B4E00F069FAEB
:101D1000136000F0E0F900BD9C1D00000000073CCE
:101D20006275696C647300B500F076FB00F0C0FD6D
:101D30000220064040CF04D1043F3E60362600F02A
:101D400050FA043F3E60144E00F04BFA043F3E60F0
:101D5000102600F0B3FA00BD0000FFFFC0430000F2
:101D60000020000000100000000200000030000011
:101D70000100C0FF0000C0FF8047000000F800F035
:101D8000FF070000FF030000043F00003E6000006A
:101D9000000000201400002000B50000A81D000075
:101DA0005000035B275D03E0C01D00000000012719
:101DB00000B501F037F800F01EFD300040CF00BD47
:101DC000001E0000300008706F7374706F6E650045
:101DD00000B5FFF7EDFF102101400DD1202101409A
:101DE00005D0FFF747FF043F3E60DF4E04E0FFF7FA
:101DF00041FF043F3E60DD4EFFF702FF00BDC046DD
:101E00004C1E0000000007696E6C696E652C00B501
:101E1000D749D84AD84B3088884208D0904208D059
:101E2000984206D0043F3E60060000F0DAF9023620
:101E3000F1E740CF00BD0EB4CE4ACF4B018802304F
:101E4000914201D09942F9D10EBC7047601E00004A
:101E50000000047265742C00043F3E60C54EC0E172
:101E6000701E00003000046578697400F4E7C04615
:101E7000881E000030000772656375727365043F49
:101E80003E60BE4E3668BBE6A01E000081000573B2
:101E900074617465043F3E60B94E704700000000F5
:101EA000B41E00000000015DB5480021C943016077
:101EB0007047C046C41E00001000015BB0480021FE
:101EC00001607047EC1E00000000013A00B5AD480B
:101ED000076000F0A1FA043F3E60A54E00F081F9D2
:101EE000A7480021C943016000BDC046341F00005F
:101EF0003000013B00B5A3480168B9420ED0FFF79E
:101F00008FFC1520537461636B206E6F74206261C7
:101F10006C616E6365642E0A01F0F6FA043F3E6060
:101F2000944E00F05EF900F0D6F89548002101606B
:101F300000BDC046481F0000000007657865637556
:101F40007465300040CF8746601F000010000969AB
:101F50006D6D656469617465043F3E601026E9E05B
:101F6000781F0000500006696E6C696E6500043FC2
:101F70003E602026DEE0C046941F000010000B6388
:101F80006F6D70696C656F6E6C79043F3E603026D2
:101F9000D0E0C046B01F000050000A302D666F6CC4
:101FA0006461626C6500043F3E604026C2E0C0464A
:101FB000CC1F000050000A312D666F6C6461626CAA
:101FC0006500043F3E604126B4E0C046E81F0000C3
:101FD00050000A322D666F6C6461626C6500043FCC
:101FE0003E604226A6E0C0460420000050000A33AE
:101FF0002D666F6C6461626C6500043F3E60432631
:1020000098E0C0462020000050000A342D666F6C16
:102010006461626C6500043F3E6044268AE0C0460D
:102020003C20000050000A352D666F6C6461626CC4
:102030006500043F3E6045267CE0C0465820000015
:1020400050000A362D666F6C6461626C6500043F57
:102050003E6046266EE0C0467420000050000A37FD
:102060002D666F6C6461626C6500043F3E604726BC
:1020700060E0C046A4200000000008636F6E737427
:10208000616E740000B500F0C7F9FFF7F3FD043F7F
:102090003E60394E00F0A5F8FFF785FF00F01BF811
:1020A00000BDC046C820000000000932636F6E7397
:1020B00074616E7400B500F0AFF939683E600E4689
:1020C000FFF7D8FDE1E7C0462421000000000673B9
:1020D0006D756467650000B52B4801682A4A914216
:1020E0001AD202390A88294B9A4204D1043F3E6031
:1020F000002600F076F800F063F825480068043FF9
:102100003E6006002349096804311F4A13681160C4
:1021100000F067F8136000BD00F052F8043F3E6025
:10212000002608E098210000000008736574666CC2
:102130006167730000B514480168134A914205D2E3
:10214000134801683143016040CF00BD320040CFE9
:1021500010480068043001880C4B994201D11100ED
:1021600000E01143018000BD0E1E0000001C0000B5
:1021700000B5000000BD0000704700001400002002
:10218000D8FF03201000002000000020FFFF000007
:102190002000002004000020B4210000410007615D
:1021A0006C69676E6564012030403618022030404B
:1021B00036187047D8210000000005616C69676E11
:1021C00000B5894801680220014004D0043F3E6008
:1021D000002600F006F800BD102200000000026892
:1021E0002C000FB5B6B2804801687F4A914205D2F3
:1021F000043F3E600E00FEF782FE02E0320040CF58
:102200000A80043F3E60022600F058F80FBDC04629
:102210002C2200000000012C00B5043F3E60FFF7B7
:10222000E0FF360CFFF7DDFF00BDC046482200008E
:102230000000033E3C2C00B5043F3E60360CFFF727
:10224000D0FFFFF7CEFF00BDB022000000000773F3
:102250007472696E672C07B5FF21314040CF3000A2
:1022600040CF002905D1043F3E600026FFF7B9FFAB
:1022700007BD043F3E60067836020E43FFF7B1FF0C
:102280000130013902290AD3043F3E604678360204
:1022900002781643FFF7A5FF02300239F2E7002962
:1022A00000D107BD043F3E600678FFF79AFF07BDE7
:1022B0000C230000000005616C6C6F744A480168D3
:1022C000494A91420FD2320040CF8918474A914281
:1022D00019D3FFF7A5FA0B466C6173682066756C1D
:1022E0006C0A01F011F9320040CF8918404A126897
:1022F000914208D3FFF794FA0952616D2066756C1C
:102300006C0A01F001F901607047C04630230000FB
:10231000000009666F7267657472616D00B500F048
:1023200025F831483349016033483449016000BD24
:102330005823000000000D636F6D70696C65746F49
:1023400072616D3F043F3E600026274800682649C1
:10235000884248D3F64370477823000000000C639E
:102360006F6D70696C65746F72616D001E480068F6
:102370001D49884211D370470824000000000E63F5
:102380006F6D70696C65746F666C61736800164878
:1023900000681549884200D27047174818490268FA
:1023A0000B680A6003601048164902680B680A60EF
:1023B00003600F480068834215D300B5FFF730FA79
:1023C00023205661726961626C657320636F6C6C67
:1023D00069646520776974682064696374696F6EE5
:1023E0006172790A00BD70470000002000001000F3
:1023F000240000203003002004000020C000000062
:102400001C00002018000020F8240000000008280C
:10241000637265617465290000B500F003FD002E4C
:102420000ED1FFF7FDF91520437265617465206ECA
:1024300065656473206E616D6520210A01F064F8A2
:102440003868043F3E60043F386000F0A5F940CF93
:10245000002E40CF11D03868043F3E60043F386002
:10246000FFF7DEF9095265646566696E6520FFF75E
:1024700037FAFFF7D5F9022E2000FFF7A1FE8F48AB
:1024800000688E4988421ED28D480021016000F00C
:102490000FFA043F3E600626FFF710FFFEF7BAF979
:1024A000FFF7D9FE874801680A68874B9A4207D12F
:1024B000824A13681160043F3E60FFF7ADFE13606F
:1024C000066040CF12E000F0F3F97E48043F3E6022
:1024D0000668FFF7A1FE043F3E607C4EFFF781FED9
:1024E0007848310040CF0160FFF7B5FE73480168BE
:1024F0007748016000BDC046102500000000087646
:1025000061726961626C6500043F3E60012613E000
:1025100028250000000009327661726961626C65ED
:10252000043F3E60022607E0002600000000096E1E
:102530007661726961626C6500B5FFF76DFF5F4897
:1025400001685E4A914233D20F200640B2006148D2
:102550000168891A604A91420BD2FFF761F90F4E68
:102560006F7420656E6F7567682052414D0A00F0E8
:10257000CBFF0160043F3E600E00FFF77BFB043F92
:102580003E60564EFFF72DFE300040CF020000287F
:1025900005D00E600431FFF73FFE0138F9D1043F4A
:1025A0003E6080261643FFF7C5FDFFF794FD00BD92
:1025B00000F07EF90220064040CF04D1043F3E6087
:1025C0003626FFF70EFE043F3E60454EFFF733FE12
:1025D000043F3E60434EFFF72EFE043F3E603F4EF9
:1025E000FFF7FFFD300040CF002803D0FFF714FEB7
:1025F0000138FBD1FFF7D7FCFFF76DFD00BDC046EA
:10260000EC2600000000076275666665723A00B548
:10261000FFF702FF01203040361802203040361804
:1026200026480168254A914226D22A480168891B1A
:10263000294A91420BD2FFF7F3F80F4E6F742065D1
:102640006E6F7567682052414D0A00F05DFF0160B2
:10265000043F3E600E00FFF70DFB043F3E601F4E3F
:10266000FFF7BFFDFFF7D8FD043F3E601E4EFFF7AA
:1026700061FDFFF730FD00BD00F01AF902200640B1
:1026800040CF04D1043F3E603626FFF7AAFD043F49
:102690003E60134EFFF7CFFD043F3E60114EFFF743
:1026A000CAFD043F3E600D4EFFF79BFDFFF706FE9F
:1026B000FFF779FCFFF70FFD00BD000000000020D0
:1026C0002000002004000020FFFFFFFFFFFF0000AC
:1026D0001400002024000020300300207047000078
:1026E0003E60043F02367E46400100001C27000089
:1026F00000000F64696374696F6E6172797374614D
:102700007274EB480068EA49043F3E60884201D297
:10271000E84E7047E84E36687047C04658270000BC
:1027200000000E64696374696F6E6172796E65781A
:10273000740003B53168E148814207D08879FF28E9
:1027400004D00E00043F3E60002603BD043F3E60FF
:102750000026F64303BDC0468C27000000000A7324
:102760006B6970737472696E670031780131012290
:102770000A4089187618704706B4017801310122A1
:102780000A408918401806BC7047C046102800004F
:1027900000000466696E640030B500220023350035
:1027A00040CF340040CFFFF7ACFFC548B188884226
:1027B00017D0043F3E600636FFF772F8043F3E60D4
:1027C0002600043F3E602E00FEF79DFF002E40CF06
:1027D00007D0B01DFFF7D0FF02000B00B4488242C3
:1027E00004D2FFF7A6FF300040CFDED01600043F32
:1027F0003E601E0030BD00B53100386803B4FFF7FD
:10280000CBFF03BC3A68002A01D100F075FD00BD82
:102810006C280000000006636A756D702C003200A1
:1028200040CF310040CF8B1B043BA6491940002903
:102830000DD0A54881420AD0FEF7F2FF0D4A756D12
:102840007020746F6F206661720A00F05DFE5B108D
:10285000FF210B40134330001E0000B5944A13685B
:102860001060FFF7BEFC136000BDC046A428000046
:102870000000056A756D702C310040CF300040CFEC
:102880000B1A043B91491940002902D0904A914209
:10289000D2D15B108F4A13408F4A1343043F3E60EE
:1028A0001E00DAE7BC2800000000046865726500BD
:1028B000043F3E607E4E36687047C046AC2900003B
:1028C00000000D666C6173687661722D68657265D3
:1028D000043F3E60814E3668704700B5043F3E605D
:1028E0007F4EFFF77EFC043F3E607E4EFFF779FC93
:1028F00000BDDDE700B500F037F839683E600E46F0
:10290000043F3E60784EFFF78AFF00BD00B500F03F
:102910002BF839683E600E46043F3E60734EFFF769
:102920007EFF00BD00B5FFF7D8FF00F01DF8396845
:102930003E600E46043F3E606D4EFFF770FF00BDE7
:1029400000B500F011F839683E600E46FFF794FFBD
:1029500000BD00B5FFF7C1FFFFF7AAFF043F3E60CF
:102960000226FFF7ABFC00BD00B5FFF7A1FF043F57
:102970003E600226FFF7A2FC00BD00B5FFF798FFFE
:10298000FFF77AFF00BD00B5FFF792FF043F3E60FE
:10299000574EFFF744FF00BD00B5FFF789FF043F26
:1029A0003E60514EFFF73BFF00BDC046E8290000E6
:1029B0003000047468656E00052E01D140CFDCE75D
:1029C000022E01D140CFDEE7FEF72AFF17537472C3
:1029D0007563747572657320646F6E2774206D6102
:1029E0007463680A00F090FD042A0000300004655A
:1029F0006C73650000B500F017F8FDF791FBFFF769
:102A0000DBFF00BD1C2A000030000269660000B533
:102A1000FFF79FFF043F3E60022600BD382A0000FA
:102A2000300005616865616400B5FFF79DFF043FF4
:102A30003E60052600BDC046542A000030000672E4
:102A400065706561740000B500F020F8FFF7B4FF11
:102A500000BDC0466C2A00003000057768696C65CF
:102A600000B5FFF7D4FFFDF75BFB00BD802A000037
:102A7000300005756E74696C012EA5D140CF51E709
:102A8000942A0000300005616761696E012E9BD1B8
:102A900040CF55E7F42A0000300005626567696E93
:102AA00000B5FFF726FF043F3E60012600BD000091
:102AB00000000020C000000004000020FFFFFFFF16
:102AC000FFFF000001FFFFFF00FFFFFF01F8FFFF16
:102AD00000F8FFFFFF07000000E0000024000020D6
:102AE000002E000040CF000000D1000000D7000001
:102AF00000D00000042B00002000016B043F3E606A
:102B0000029E7047142B00002000016A043F3E60C3
:102B1000009E7047242B000020000169043F3E60A6
:102B200026007047642B00003000056C65617665F7
:102B300000B5D44801683B00043F1A68043B1A60A2
:102B400008338B42F9D103B4FFF70EFF03BC330007
:102B500040CF04390B60016004390A6801320A6011
:102B600000BDC046782B0000200006756E6C6F6FAC
:102B7000700030BC7047C046B02B00003000052B01
:102B80006C6F6F70032E00D01EE740CF00B5043F7E
:102B90003E60BD4EFFF73BF9FFF7B8FE1AE080201C
:102BA00000060019A419401B801940CF7047C04689
:102BB000F42B00003000046C6F6F7000032E00D007
:102BC00002E740CF00B5043F3E60B04EFFF71FF96B
:102BD000FFF790FE00F00CF9AA48310040CF0160E9
:102BE000043F3E60AA4EFFF712F900BD0134AC422B
:102BF0007047C0463C2C0000780002646F0000B5AE
:102C0000043F3E60A34EFFF702F99E480168043F6F
:102C10003E600E00043F3E6000260760FFF769FE3D
:102C2000043F3E60032600BD00B500F02EF8ECE73F
:102C300030B4340040CF350040CF7047D02C000076
:102C40007800033F646F00B5043F3E60914EFFF78C
:102C5000DEF8043F3E60904EFFF7C3FA89480168F2
:102C6000043F3E600E00FFF77FFE0136043F3E60EA
:102C7000012684480760FFF73CFE043F3E600326C0
:102C800000BD00B500F001F8E3E700B5043F3E6089
:102C9000824EFFF7A6FA043F3E600426FEF70EFFC1
:102CA000013B08D0043F3E600526FEF707FF013BCD
:102CB00000F003FC00BD043F3E603526FFF791FAAB
:102CC000043F3E60764EFFF78CFA00F0F6FB00BD45
:102CD000EC2C00003000046361736500043F3E602B
:102CE0000026043F3E6008267047C046042D0000C1
:102CF0003000033F6F666B480AE0013EB64140CFAB
:102D00007047C046902D00007800026F660066484C
:102D1000082E00D058E640CF00B5043F3E600600C4
:102D2000FFF775F8FFF720FE39683E600E46013662
:102D3000043F3E600926043F3E60594EFFF751FABA
:102D400000BD00B5300040CF013B01B400F0B5FB41
:102D500001BC082E00D037E640CF043F3E6006009D
:102D6000FF213140B14204D150490E43FFF739FAF7
:102D7000D8E7043F3E600026FEF7A0FE043F3E6019
:102D80004B4EFFF72EFACDE7300040CFB0427047F0
:102D9000C82D0000300005656E646F66092E00D0F6
:102DA00012E640CF00B540B440CFFFF7DDFD3968F3
:102DB0003E600E46FFF7F0FD043F3E6040BC043F1E
:102DC0003E60082600BDC046182E00003000076592
:102DD0006E6463617365082E00D0F5E540CF00B5E1
:102DE000043F3E602E4EFFF7FCF900F001F800BDF5
:102DF00000B5300040CF00280DD003B40121314090
:102E0000002903D0013EFFF7BEFD01E0FFF7B5FD4D
:102E100003BC0138EFE700BD2C2E00000000057454
:102E20006F6B656E043F3E60202605E0B82E000003
:102E3000000005706172736510B5FEF738FC310053
:102E400040CF300040CF1B4A12688418202E07D193
:102E500091420FD0835CB34202D101328418F7E76C
:102E6000914207D0835C0132B342F9D18618361BF8
:102E7000013E01E08618361B043F3C600D480260AD
:102E800010BD00000C0000209E2B0000EC2B000069
:102E9000722B0000302C0000AC42000030B4000067
:102EA00040CF0000FA2C0000882D0000002E00000A
:102EB000B0420000E4FF0320F82E0000000005648B
:102EC00069676974D44B1B68303E0BD30A2E0BD351
:102ED000073E0A2E06D3242E06D3203E0A2E01D307
:102EE000242E01D3002670479E42FBD2043F3E6051
:102EF0000026F6437047C046043000000000066E0E
:102F0000756D626572003FB5310040CF701E0126BD
:102F1000012204B4C04B1B680024002500293CD0CA
:102F20000130013902782D2A04D101B00022D243A8
:102F300004B4F3E7232A01D10A23EFE7242A01D1BD
:102F40001023EBE7252A01D10223E7E72E2A01D13E
:102F50000226E3E72C2A36D0043F3E601600FFF736
:102F6000B3FF002E40CF2BD0043F3E602600043F2D
:102F70003E602E00043F3E601E00043F3E6000267F
:102F80000FB4FDF7D6F90FBC350040CF340040CF69
:102F90000022A419554140CFC0E704BC002A04D543
:102FA0000022E443ED430134554133002600012B58
:102FB00002D0043F3E602E00043F3E601E003FBD35
:102FC00001B000263FBD2500002402260029E4D0E0
:102FD000425C01392E2AF9D0043F3E601600FFF70B
:102FE00073FF002E40CFEBD0043F3C60043F3E60B7
:102FF0001E000FB4FDF751FA0FBC340040CF40CF94
:10300000E4E7C046283000000000062E64696769C6
:1030100074000A2E01D230367047242E01D2373682
:10302000704723267047C0466030000000000468E7
:103030006F6C6400330040CF784801783F290DD28F
:10304000013101704018012907D0013802780130A0
:103050000270013801390129F7D103707047C04669
:1030600080300000000005686F6C643C330040CF86
:103070006A4801783F2902D20131017043547047F8
:10308000983000000000047369676E00002E01D4C0
:1030900040CF70472D26CDE7AC3000000000022362
:1030A0003E005E480678013038607047C43000004A
:1030B00000000366235310B5202400F008F8013CFB
:1030C000FBD110BDE830000000000266230000B50F
:1030D000043F3E60504E3668FDF717F9FFF799FF41
:1030E000FFF7C4FF00BDC04604310000000002230A
:1030F000530000B500F00AF8002EFBD13868002814
:10310000F8D100BD303100000000012300B5043FBC
:103110003E60414E3668043F3E600026FDF7DDF913
:10312000FCF7FEFF40CFFFF774FFFFF783FF00BD02
:10313000443100000000023C2300384800210170A7
:103140007047C04658310000000002662E00043F60
:103150003E60202605E0C046A8310000000003665E
:103160002E6E00B510B4340040CFFDF73BFBFDF7E9
:1031700091F8043F3E600026FFF7DFFFFFF7B9FF3D
:1031800040CF2C26FFF772FF002C03D0FFF79FFFE4
:10319000013CFBD110BC40CFFFF778FF043F3E60FD
:1031A000043F3E601EE0C046C031000000000375D1
:1031B000642E00B5FFF7C1FFFFF79BFF12E0C0468A
:1031C000F4310000000002642E0000B5FDF70AFB98
:1031D000FDF760F8FFF7B1FFFFF78BFFFDF70DFB81
:1031E000FFF754FFFFF75DFFFEF77AFBFEF7C6FA25
:1031F00000BDC04608320000000002752E00043FEA
:103200003E600026D5E7C046203200000000012EB7
:10321000043F3E60F617D8E7FCFF0320280000209B
:10322000683200000000086576616C7561746500A5
:1032300000B5FEF73CFA01CF01B440B440CFC1481D
:10324000016802B400210160FEF724FA00F014F8CE
:10325000BC4802BC0160043F3E6040BC01BC043F6E
:103260003860FEF717FA00BDE0340000000009697D
:103270006E7465727072657430B5B34887420BD94D
:10328000FEF7CEFA10537461636B20756E6465723D
:10329000666C6F770A0037E1AC4887420AD2FEF7C6
:1032A000BFFA0F537461636B206F766572666C6F43
:1032B000770A29E1A64C2568002D01D13D00256043
:1032C000FFF7B0FD002E02D1043740CF30BD386883
:1032D000043F3E60043F3860FFF75EFA310040CFA4
:1032E000320040CF002A13D138683100FFF70BFEBF
:1032F000320040CF002AC0D1FEF7F6FAFEF790FA6E
:103300000C206E6F7420666F756E642E0A00FBE0F1
:10331000904B1B68002B1DD10025256030230B40EE
:10332000302B0ED1FEF7DCFAFEF77AFA1220697321
:1033300020636F6D70696C652D6F6E6C792E0A005D
:10334000E2E0043740CF043F3E601600FEF7F9FD8F
:10335000FFF793FF043740CF802008400ED1EB1BCE
:103360009B08402008400FD00820084002D0002BC6
:1033700000D01DE00F200840834205D3043F3E608B
:103380001600FEF7DEFD78E700F097F8043F3E6098
:10339000160010220A4002D0FEF7D3FD6DE720226E
:1033A0000A4002D0FEF733FD67E7FEF729FC64E729
:1033B000072001401000FEF73EFD012915D1012B29
:1033C000DCD1FF213140B14204D140880643FEF7F1
:1033D00008FF52E7043F3E600026FEF76FFB043F04
:1033E0003E600688FEF7FDFE47E7022902D1012B69
:1033F000C4D1EFE703291CD1012BBFD1FF213140FC
:10340000B1420AD154490E43FEF7EBFE0432043FA9
:103410003E601600FEF7FBFC2FE7043F3E600026EF
:10342000FEF74CFB0232043F3E601600FEF7EFFC55
:1034300023E7042918D1012BA0D1330040CF002B62
:1034400000D11AE71F221A409A4205D0043F3E607D
:103450004688FEF7C6FE10E7043F3E6006889B01E3
:103460001E43FEF7BEFE08E7052923D1012B0FD12D
:10347000043F3E600026FEF721FB043F3E6006004D
:10348000FEF7C5FC043F3E60344EFEF7AAFEF4E6AC
:10349000043F3E600026FEF711FB043F3E6001261C
:1034A000FEF70CFBFEF7C7FC043F3E600600FEF78C
:1034B000AEFCE2E601308047DFE600B5002B0BD022
:1034C000013B043F3E609E00BE59FEF7D3FB002B3C
:1034D000F6D1043D2F0040CF0025256000BDC04639
:1034E000FC340000810009686F6F6B2D7175697481
:1034F000043F3E601A4E70473035000074350000BE
:103500000000047175697400164885460E4F164810
:103510000A2101600F48002101600D48016009483F
:10352000016012480160124941600D4800688746F9
:10353000FEF7CCF8FFF7A0FEFEF772F905206F6BDF
:103540002E0AF5E7E4FF03203002002030010020BE
:1035500008000020D8FF0320003E000040CF0000FC
:10356000D4FF032030030020FCFF0320DCFF0320F6
:10357000680000209035000000000565696E743F0A
:10358000043F3E60EFF31086013EB6417047C046EF
:10359000A035000020000465696E740062B67047B3
:1035A000B035000020000464696E740072B6704784
:1035B000C83500002000046970737200043F3E604B
:1035C000EFF305867047C046D43500000000036E57
:1035D0006F70704718360000000009756E68616EE4
:1035E000646C656400B5FEF71BF914556E68616E76
:1035F000646C656420496E74657272757074200025
:10360000043F3E60EFF30586FEF782F9FEF708F906
:1036100002210A0000BDC0462C36000000000572E1
:1036200065736574FA48FB490160C0465036000076
:1036300081000B6972712D7379737469636B043F38
:103640003E60F54E7047E4350000F3480068874659
:10365000743600008100096972712D6661756C74A1
:10366000043F3E60ED4E7047E4350000EB480068D3
:103670008746C0469C36000081000E6972712D633A
:103680006F6C6C656374696F6E00043F3E60E44E5E
:103690007047E4350000E24800688746C036000005
:1036A0008100096972712D706F776572043F3E6009
:1036B000DC4E7047E4350000DA4800688746C046B3
:1036C000E43600008100096972712D726164696FCE
:1036D000043F3E60D44E7047E4350000D248006895
:1036E0008746C046083700008100086972712D7551
:1036F00061727400043F3E60CC4E7047E4350000B8
:10370000CA4800688746C0462C3700008100086917
:1037100072712D7370693000043F3E60C44E704773
:10372000E4350000C24800688746C04650370000B4
:103730008100086972712D7370693100043F3E6029
:10374000BC4E7047E4350000BA4800688746C04662
:103750007437000081000A6972712D6770696F7497
:103760006500043F3E60B44E7047E4350000B24847
:1037700000688746943700008100076972712D61E7
:103780006463043F3E60AD4E7047E4350000AB48D3
:1037900000688746B83700008100086972712D748F
:1037A000696D3000043F3E60A54E7047E43500006F
:1037B000A34800688746C046DC37000081000869DE
:1037C00072712D74696D3100043F3E609D4E7047EB
:1037D000E43500009B4800688746C046003800007A
:1037E0008100086972712D74696D3200043F3E607A
:1037F000954E7047E4350000934800688746C04600
:10380000243800008100086972712D7274633000E1
:10381000043F3E608D4E7047E43500008B480068E1
:103820008746C046483800008100086972712D74CF
:10383000656D7000043F3E60854E7047E4350000C2
:10384000834800688746C0466838000081000769E1
:1038500072712D726E67043F3E607E4E7047E43594
:1038600000007C48006887468838000081000769AE
:1038700072712D656362043F3E60774E7047E43598
:103880000000754800688746AC38000081000B696D
:1038900072712D63636D5F616172043F3E606F4EB4
:1038A0007047E43500006D4800688746CC3800005A
:1038B0008100076972712D776474043F3E60684E21
:1038C0007047E4350000664800688746F03800001D
:1038D0008100086972712D7274633100043F3E608B
:1038E000604E7047E43500005E4800688746C04679
:1038F000143900008100086972712D7164656300DC
:10390000043F3E60584E7047E4350000564800685A
:103910008746C0463839000081000A6972712D6CF3
:1039200070636F6D7000043F3E60504E7047E43529
:1039300000004E48006887465C3900008100086935
:1039400072712D7377693000043F3E60484E7047B6
:10395000E4350000464800688746C04680390000CC
:103960008100086972712D7377693100043F3E60F0
:10397000404E7047E43500003E4800688746C04628
:10398000A43900008100086972712D7377693200D3
:10399000043F3E60384E7047E4350000364800680A
:1039A0008746C046C83900008100086972712D73CE
:1039B00077693300043F3E60304E7047E4350000C5
:1039C0002E4800688746C046EC390000810008692F
:1039D00072712D7377693400043F3E60284E704742
:1039E000E4350000264800688746C046883A000053
:1039F0008100086972712D7377693500043F3E605C
:103A0000204E7047E43500001E48006887460000DD
:103A10000CED00E00400FA05D0FF0320CCFF0320EA
:103A2000C8FF0320C4FF0320C0FF0320BCFF032006
:103A3000B8FF0320B4FF0320B0FF0320ACFF032036
:103A4000A8FF0320A4FF0320A0FF03209CFF032066
:103A500098FF032094FF032090FF03208CFF032096
:103A600088FF032084FF032080FF03207CFF0320C6
:103A700078FF032074FF032070FF03206CFF0320F6
:103A800068FF032064FF032000400000FFFF182DA3
:103A90002D2D20466C6173682044696374696F6ED4
:103AA000617279202D2D2D00FDF725FC46488546B5
:103AB000464F2A2646484449016046484649016027
:103AC000043F3E60444E454DB188454B994224D059
:103AD000444B0B400AD0B01DFEF74EFEFEF7ABF98B
:103AE0000388408800040343ED1A16E080230B404E
:103AF00013D00F23194089006D1AB01DFEF73CFE4C
:103B0000FEF799F9043F3E600600043F3E602E0038
:103B1000043F3E600E00FDF72DF8FEF70AFE300070
:103B200040CFD1D03048066040CF304805603048A3
:103B300030492B4A884204D0023803889342F9D096
:103B400002302D490860FDF76BFE354D65637269E3
:103B500073702D5374656C6C6172697320322E34EE
:103B60002E362077697468206D3420636F7265206B
:103B7000666F72206E524635323834302D444B0A0F
:103B8000FDF74EFE174D6F646966696564206672C5
:103B90006F6D206E524635313832320A1748002197
:103BA0000160043F3E60164E043F3E600426FEF76F
:103BB000F3FD40CF002E02D0FEF7C3F9B5E440CFAD
:103BC000A2E4696E69740000300300203002002016
:103BD0000000002004000020C000000000000420BD
:103BE000FFFF0000000100001C0000202400002056
:103BF0000000100000400000180000200800002015
:043C0000C23B0000C3
:00000001FF
