:100000008C030020094C0000CD470000CD470000C4
:1000100000000000000000000000000000000000E0
:10002000000000000000000000000000F747000092
:100030000000000000000000F7470000AB47000090
:10004000194800003D480000614800008548000054
:10005000A948000000000000CF480000EF48000061
:100060001149000035490000594900007D49000050
:10007000A1490000C3490000E3490000074A00000D
:10008000274A0000494A00006D4A0000934A0000D8
:10009000B54A0000D94A0000FD4A0000214B00008B
:1000A000454B0000694B000000000000000000000C
:1000B0000000000000000000000000000000000040
:1000C00018050000FFFF222D2D2D204D656372695C
:1000D00073702D5374656C6C61726973205241208A
:1000E000322E342E37202D2D2D0007B59048002BB1
:1000F00009D000F03BF800F041F800F027F842602A
:1001000028210160F3E707BD00B589480023016895
:10011000282905D1426800F004F800F04CF8F6E711
:1001200000BD03B5043F3E601600043F3E601E0064
:1001300008B400F0A3FF08BC0133043F3E607D4ECD
:10014000043F3E607C4E04F072F903BD03B5013BF1
:10015000043F3E601E0008B400F07AFF08BC320085
:10016000043F3E60754E04F062F903BD03B5744868
:1001700001681E2901D000F034F803BD81690162D5
:10018000016981618168016101688160C1694162C1
:100190004169C161C16841614168C1601E2101605E
:1001A00070470FB5624801681E2903D0FFF7DEFFD4
:1001B000FFF7E4FF0FBD02B581680160C1684160CF
:1001C00000E002B5016981604169C1608169016136
:1001D000C1694161016A8161416AC1611E21016297
:1001E00002BD08B501681E220260082901D20B0079
:1001F00004E028290DD1436800F05DF8043F3E601B
:10020000504E02F094FF043F3E604F4E1E4302F0FA
:100210008EFF08BD00B500F009F800F00CF800F002
:100220000FF800F012F800F015F800BD0FB54448C3
:10023000FFF7D7FF0FBD0FB54448FFF7D2FF0FBD43
:100240000FB54348FFF7CDFF0FBD0FB54148FFF78E
:10025000C8FF0FBD0FB536480168062202601E298F
:1002600005D1043F3E603C4E02F061FF14E02829B6
:1002700009D14368043F3E601E00043F3E600626ED
:1002800002F0B6FB08E0062906D0043F3E60334E7C
:10029000C9000E4302F04BFF00F001F80FBD2448E7
:1002A0001E210162816101618160C16206210160DC
:1002B00000218162704707B5043F3E601E0000F0D8
:1002C0004FF8043F3E601E0002F092FB07BD07B5E9
:1002D000C16A282904D1016B994201D1002307BDCD
:1002E0000168002918D08168002915D0016900290A
:1002F00012D0816900290FD0016A00290CD0036354
:10030000043F3E601E00043F3E60002602F070FB8A
:100310002821C162002307BD043F3E601E0000F09B
:100320001FF8043F3E601E0002F062FB07BD0000A4
:1003300028000020000E00006102000000200000E4
:1003400048000020043F000038600000400000200A
:10035000380000203000002040CF0000064600009A
:1003600037B536480168826803698469056A0620E2
:1003700000F00EF8032000F00BF8022000F008F85F
:10038000012000F005F800232C481E21C16237BD72
:10039000814209D0824207D0834205D0844203D0F3
:1003A000854201D0030037BD7047043F3E60244EB4
:1003B00000B581581E2905D1FFF7D2FF83500121D6
:1003C00099400E4300BD00B501681E2904D10022EA
:1003D000FFF7EBFF02F0ABFE00BD00B581681E2900
:1003E00007D10822FFF7E1FF0022FFF7E1FF02F04B
:1003F0009EFE00BD00B501691E290AD11022FFF73B
:10040000D4FF0822FFF7D4FF0022FFF7D1FF02F04C
:100410008EFE00BD00B581691E290DD11822FFF79F
:10042000C4FF1022FFF7C4FF0822FFF7C1FF00221C
:10043000FFF7BEFF02F07BFE00BD00002800002099
:1004400000CF000000B50168282904D14368FFF7F8
:1004500032FF0360190000BD00B58168282904D16E
:10046000C368FFF728FF8360190000BD00B501696C
:10047000282904D14369FFF71EFF0361190000BD5D
:100480003EB5826803698469056A9A4203D0A24234
:1004900001D0AA420AD1072A08D8043F3E60D600FC
:1004A000FFF75EFF1E43836002F041FE3EBD3EB596
:1004B0000168826803698469056A914206D099429D
:1004C00004D0A14202D0A94200D03EBD043F3E600C
:1004D000CE00FFF745FF1E43036002F028FE3EBD3D
:1004E00000B5FFF768FEFFF75CFEFFF739FF03601A
:1004F00000BD01B506480368013307D00023DB4384
:100500000360043F3E60034E02F011FE01BD000097
:10051000D8FF032000B500003C0500004202043271
:10052000647570003868043F3E60043F386070476F
:1005300000B500F0B7FC00F0B5FC00BD5C050000A4
:100540006202053264726F70043740CF704700B5A5
:1005500000F058FC00F056FC00BDC046A4050000A9
:10056000440205327377617007CF043F3860043F5F
:100570003E60043F3A600E00704700B5FFF74AFF47
:100580000268036903600261426843694360426133
:100590008268836983608261C268C369C360C26123
:1005A00000BDC046CC050000620204326E697000D6
:1005B00007CF043F3860704700B5FFF72BFFFFF708
:1005C000DCFFFFF7F8FDFFF7F6FD00BDE8050000D2
:1005D000440005326F766572B868043F3E60043FA0
:1005E0003860FE687047C0460C06000044000532C3
:1005F0007475636B07CF043F3860043F3E60043F6F
:100600003A60043F3960043F3860704730060000AC
:1006100046000432726F74003868B9683A69B8608D
:1006200039613A6079687E60FE68F9607047C0465B
:1006300054060000460005322D726F743868B968A0
:100640003A6938613960BA60F968FE607E6879603D
:100650007047C0467C060000200203323E7201CF84
:1006600001B440B440CF704700B5FFF742FF00F03F
:10067000EDFB00F08FFC00F08DFC00BDA806000033
:1006800020020332723E043F3E6040BC01BC043F86
:100690003860704700B5FFF72CFF00F096FC00F0C3
:1006A00094FC00F0D3FB00BDD8060000200203320A
:1006B0007240043F3E60019E043F3E60009E7047D2
:1006C00000B5FFF716FF043F3E600C4E03F067FADB
:1006D00003F062FA00BDC0460407000020020632A3
:1006E0007264726F700002B0704700B5FFF701FFCF
:1006F000043F3E60024E02F01AFD00BD019800006A
:1007000002B000001C07000042000364322F38686A
:10071000F10776104008084338607047340700003E
:1007200062020364322A38680018764138607047E4
:1007300019E0C0465007000042000464736872006C
:100740003868F10776084008084338607047C046AB
:100750009C0700006202046473686C00386800182B
:1007600076413860704700B5FFF737FEFFF76AFE45
:10077000FFF79DFE00F06AFBFFF764FEFFF797FEB0
:10078000043F3E60402601F0EFFB00F05FFB043FBA
:100790003E60404E01F0E8FB00BDC046B0070000DF
:1007A0004200046461627300002E08D47047C046A2
:1007B000D0070000420007646E65676174653868A1
:1007C0000021C043F64301304E4138607047C046B7
:1007D00020080000640202642D0007CF121AB14104
:1007E0000E00043F3A60704700B5FFF713FE00F0BB
:1007F00082FBFFF727FEFFF75AFE00F027FBFFF70B
:1008000021FEFFF754FEFFF7B8FE01F038FB00F0C1
:100810008FFB043F3E60204E00F013FD00BDC0463C
:100820006C080000640202642B0007CF12184E41CE
:10083000043F3A60704700B5FFF7ECFD00F05BFB4A
:10084000FFF700FEFFF733FE00F000FBFFF7FAFDB5
:10085000FFF72DFEFFF791FE01F0FBFA00F068FBB9
:10086000043F3E600B4E00F0F0FC00BDA00800000D
:10087000610203733E64043F3E60F617704700B5A3
:1008800000F0AEFAFFF713FE043F3E60034E01F0A6
:100890006BFB00BD4041000080410000C01700001C
:1008A000B4080000420003756D2A01CF3200002613
:1008B00013E0C046C80800004200026D2A00300064
:1008C000F61704CFD11705E00809000044000375AE
:1008D000642A07CF564341437618010C130C594341
:1008E0007618010C80B292B2514343435043002228
:1008F000C91852411204B6180A04090C80184E4156
:10090000043F38607047C0469C09000044000475ED
:10091000646D2A0010B50024043F3E607E68043FE9
:100920003E603E69FFF7C1FF310040CF300040CF4D
:10093000043F3E603E68043F3E60FE6803B4FFF73C
:10094000B4FF03BC330040CF320040CF043F3E60D1
:100950003E68043F3E603E690FB4FFF7A6FF0FBC40
:100960009219634140CF89196241634140CF043FEE
:100970003E607E68043F3E60FE680FB4FFF795FF5F
:100980000FBC9219634140CF89196241634140CF46
:100990001E003A607960B86010BDC046C009000012
:1009A0004300022A2F0000B540B440CFFFF787FF75
:1009B000043F3E6040BC00F04FF8043700BDC04625
:1009C000E40900004300052A2F6D6F6400B540B4B0
:1009D00040CFFFF774FF043F3E6040BC00F03CF89E
:1009E00000BDC046080A0000430003752A2F00B569
:1009F00040B440CFFFF759FF043F3E6040BC00F0D9
:100A00001CF8043700BDC0462C0A000043000675E0
:100A10002A2F6D6F640000B540B440CFFFF745FF4B
:100A2000043F3E6040BC00F008F800BD4C0A0000E6
:100A3000430006756D2F6D6F640000B5043F3E6086
:100A4000002600F01AF840CF043700BD6C0A000001
:100A50004300056D2F6D6F6400B5043F3E60F617CF
:100A600000F034F840CF043700BDC046C00A000093
:100A700044000675642F6D6F640030B400230022BB
:100A80007968B86835003C684026400049415241C9
:100A90005B41AB4202D804D3A24202D3121BAB414A
:100AA0000130013EF1D10E0038607B60BA6030BC8D
:100AB000704730B400237A68B9680020E2E7C04686
:100AC000380B0000440005642F6D6F6400B5F0170B
:100AD00019D0FFF774FEFFF747FDF0170CD0FFF7B2
:100AE0006EFEFFF741FDFFF7C8FFFFF73DFDFFF783
:100AF00066FEFFF739FD00BDFFF736FDFFF7BDFFCE
:100B0000FFF75DFE00BDFFF72FFDF0170ED0FFF7DA
:100B100056FEFFF729FDFFF7B0FFFFF750FEFFF786
:100B200023FDFFF74CFEFFF71FFD00BDFFF71CFD87
:100B3000FFF7A3FF00BDC046500B00004400026455
:100B40002F0000B5FFF7C2FFFFF732FD00BDC04622
:100B5000980B0000440002662A0000B5F0170DD083
:100B6000FFF72DFEFFF700FDF0170DD0FFF727FE72
:100B7000FFF7D0FE40CF01CF386000BDFFF7F4FC97
:100B8000F017F5D0FFF71BFEFFF7C4FE40CF01CFF3
:100B90003860FFF714FE00BDE40B0000440002665D
:100BA0002F0000B5F0170ED0FFF709FEFFF7DCFCB1
:100BB000F0170ED0FFF703FEFFF7D6FCFFF779FF23
:100BC000FFF7F6FC00BDFFF7CFFCF017F4D0FFF7FE
:100BD000F6FDFFF7C9FCFFF76CFFFFF7F0FDFFF72D
:100BE000E7FC00BD2C0C000020020232210006CFE1
:100BF0003160726040CF704700B5FFF7FBFB0168C2
:100C0000426806B400F0C0FDFFF7CBFA06BC0160F5
:100C1000282905D0043F3E60584E00F0B8FD00BDC5
:100C20000432426000F0B0FD00BDC046740C00000C
:100C3000200202324000043F706838603668704716
:100C400000B500F0CDF80168282909D0043F3E60C6
:100C50004B4E00F07AFD00F0F9F800F073FD00BD96
:100C600041680431416000F06DFD00F0EFF800F0E4
:100C700069FD00BD880C000044000364753C07CF8B
:100C8000121AB141B64170479C0C00004400036445
:100C9000753E07CF801A8E41B6417047B40C0000F4
:100CA000440002643C0007CF121AB1410DDB00265C
:100CB0007047C046D00C0000440002643E0007CFDD
:100CC000801A8E4101DB002670470026F6437047EC
:100CD000EC0C000062020364303C0437F6177047E6
:100CE00000B500F0C6F800F010FB00BD140D0000C8
:100CF00062020364303D01CF0643013EB6417047B6
:100D000000B5043F3E601F4E00F09FFA00F0D8FA95
:100D100000BDC0463C0D0000440203643C3E07CFCA
:100D200050404E400643013EB641F643704700B581
:100D300000F016F800F0D7FA00BDC046880D00009C
:100D4000440202643D0007CF50404E400643013E3E
:100D5000B641704700B500F003F800F0B1FA00BDED
:100D600000B5FFF757FB00F0C6F800F0CFF900F030
:100D7000DFF800F0CBF900F0BDF900BD40600000E5
:100D800040680000004300009C0D00002000037339
:100D90007040043F3E603E007047C046AC0D00000E
:100DA000200003737021370040CF7047C00D000052
:100DB000200003727040043F3E606E467047C0469C
:100DC000D00D0000200003727021B54640CF70475F
:100DD000F40D0000610203647570043F3E607047CB
:100DE00006B5FFF7F0FA01684268FFF7DAF901602B
:100DF000426006BD200E000061020464726F700044
:100E000040CF704700B501681E2905D1043F3E6000
:100E1000A14E02F08CF900BDFFF7CDF900BDC04630
:100E2000380E00006100043F64757000002E01D090
:100E3000043F3E607047C046640E000062020473C7
:100E40007761700039683E600E0070470CB5FFF79F
:100E5000C4FA02688368036082604268C3684360C2
:100E6000C2600CBD900E00006202036E6970043710
:100E7000704700B5FFF7A7FA81681E2902D0FFF777
:100E8000A0F900BD043F3E60834E02F050F900BD62
:100E9000B80E00006202046F76657200043F3E6087
:100EA0007E68704700B5FFF798FA8168C268FFF75F
:100EB00078F90160426000BDE00E00006202047437
:100EC00075636B0001CF083F7E603860704700B5E6
:100ED000FFF783FAFFF784FF00F02AF800BDC04651
:100EE000180F0000630203726F7403CF083F78602D
:100EF0003E600E0070470EB5FFF77CFA016882680D
:100F000003698160026103604168C2684369C1602E
:100F1000426143600EBDC0463C0F00006302042DD9
:100F2000726F740003CF083F7E603960060070471F
:100F300000B5FFF7E0FFFFF7DEFF00BD500F000038
:100F40002000047069636B00B0003E587047C046D3
:100F5000680F000000000564657074684F49C91B84
:100F6000043F3E608E087047840F00000000067248
:100F7000646570746800043F3E606E464849891B92
:100F80008E087047B80F00002002023E720040B485
:100F900040CF704700B5FFF7ACFAFFF714FAFFF740
:100FA00051FA043F3E603F4E01228A40164302F050
:100FB000BEF8FFF700F900BDEC0F0000200202723E
:100FC0003E00043F3E6040BC704700B5FFF791FA19
:100FD000FFF7E7F8FFF7C4F90360043F3E60324EC5
:100FE00001229A40164302F0A2F800BD0C10000046
:100FF000200202724000043F3E60009E704700B530
:10100000FFF777FA02F0C8FD00BDC04630100000BF
:101010002002057264726F7001B0704700B5FFF76F
:1010200068FA043F3E60214E02F081F800BDC046E0
:1010300044100000200005727069636BB6006E44B6
:101040003668704770100000000004726F6C6C000E
:10105000002E01D140CF7047B0003958C019031F8E
:101060001A6802600438013EF9D104370E00704757
:10107000B01000000000052D726F6C6C002E01D1C5
:1010800040CF7047386839464A680A600431013EEB
:10109000FAD1086040CF7047043700008C0200206E
:1010A0008C03002000B4000000BC000001B0000070
:1010B000C8100000620203616E6401CF06407047F1
:1010C000043F3E606F4EC0E0E41000006202036225
:1010D000696301CFB04306007047043F3E606A4E2B
:1010E000AFE0C046FC1000006202026F720001CF48
:1010F00006437047043F3E60644EA6E014110000B2
:10110000620203786F7201CF46407047043F3E6031
:101110005F4E9AE02C1100006202012A01CF464383
:101120007047043F3E605B4E8FE0C0464C110000AC
:10113000410003636C7A300006D00026400002D0E4
:1011400001D20136FAE77047202670475C11000093
:10115000610003726F720120C64170477011000078
:10116000610003726F6C0020B61946417047C0469B
:10117000A41100006202076172736869667401CF8E
:1011800030410600704700B5043F3E60424E043FC8
:101190003E60424EFFF721F941681F2928D91F21DF
:1011A000416025E0CC110000620206727368696636
:1011B000740001CFF0400600704700B5043F3E6068
:1011C000374E043F3E60374E12E0C046B01200007A
:1011D0006202066C73686966740001CFB040060055
:1011E000704700B5043F3E602F4E043F3E6000262E
:1011F000FFF7F3F80168282903D040CF00F021F869
:1012000000BD04374168FEF7D6FF002901D140CF69
:1012100000BD1F290AD889010E430268D200164377
:10122000FFF75EF91E4301F082FF00BD40CFFFF7DC
:1012300057F9043F3E601D4E1B021E4301F077FF2D
:1012400000BD0FB5FFF7C9F80CE00FB5FFF7C5F803
:101250000168062901D1FFF7F9FD8268282A01D12A
:10126000FFF7F4FDFFF7F8F8FFF70AF9FFF7EAF8E0
:10127000C90082680E43164301F059FFFEF79BFF39
:101280000FBD00000040000080430000004300004C
:1012900040400000404300000041000000100000FA
:1012A000C040000000080000804000000020000056
:1012B000D4120000610202303D00013EB641704789
:1012C00000B500F003F900F00EFEFEF774FF73495D
:1012D000816200BDFC120000610203303C3E013E11
:1012E000B641F643704700B500F0F0F800F0FBFDA2
:1012F000FEF761FF6A49816200BDC046201300000D
:10130000610202303C00F617704700B500F0DEF8CD
:10131000043F3E60634E00F027FE6349816200BDDA
:10132000381300006000047472756500043F3E606D
:101330000026F6437047C0464C1300006000056667
:10134000616C7365043F3E600026704770130000B7
:101350004202023E3D0001CFB042E9DA002670476A
:10136000043F3E60514E043F3E60514EBAE0C046DD
:10137000941300004202023C3D0001CFB042D7DD91
:1013800000267047043F3E604A4E043F3E604A4E8E
:10139000A8E0C046B41300004202013C01CFB042B5
:1013A000C6DB00267047043F3E60414E043F3E606E
:1013B0003E4E97E0D41300004202013E01CFB042FE
:1013C000B6DC00267047043F3E603B4E043F3E6063
:1013D000384E87E0F8130000620203753E3D01CFEE
:1013E000861BB641F6437047043F3E602C4E043FD7
:1013F0003E602A4E76E0C0461C140000620203756F
:101400003C3D01CF361AB641F6437047043F3E607B
:101410002A4E043F3E602A4E64E0C0463C14000061
:10142000620202753C0001CF861BB6417047043F43
:101430003E601A4E043F3E60194E53E05C140000BB
:10144000620202753E0001CF361AB6417047043F72
:101450003E601B4E043F3E60184E43E07C1400008B
:101460006202023C3E0001CF811B361A0E437047D8
:10147000043F3E60134E043F3E6033E0D815000049
:101480006202013D01CF361A013EB6417047043F6A
:101490003E600D4E043F3E6024E0000000D200009C
:1014A00000D30000C017000000D5000000DB0000E2
:1014B00000DA000000DC000000DD000000D80000C1
:1014C00000D9000000D0000000D1000000B5FEF7F8
:1014D0007AFFFEF7ABFEFEF7AEFEFEF7B1FEFEF7BB
:1014E000BBFF00BD00B5FEF778FFFEF79FFEFEF7DD
:1014F000A2FEFEF7BBFF8268282A04D1FFF7A6FCF4
:1015000039683E600E4640CF0168282909D14168FC
:10151000FF2906D8043F3E60634E0E4381680902EE
:1015200006E0FEF78FFF043F3E60604EC9001643A1
:101530000E4301F0FCFDFEF73EFEFEF73CFE866228
:1015400040CF00BD0FB55A48816A002930D0043F12
:101550003E60866A00218162310AD52901D140CFDF
:101560000FBDFEF71EFEFEF7FBFE0360D22903D17E
:10157000504E00F0F9FC0FBDD32905D14D4E00F0BF
:10158000F3FC00F004FD0FBD023601F0D0FD043F76
:101590003E60494E00F00DF800F0F9FC043F3E605B
:1015A000464E01F0C4FD043F3E60434E00F001F89A
:1015B0000FBD00B5FEF707FFFEF779FF01680902CE
:1015C0000E4301F0B4FD00BD00B5816A090AD529BA
:1015D00001D1FEF7F0FD00BDF41500006202036DBD
:1015E000696E01CFB04200DC06007047043F3E60E8
:1015F000334E2BE0101600006202036D617801CFBC
:10160000B04200DB06007047043F3E602D4E1DE0F7
:1016100030160000620204756D61780001CFB0429F
:1016200000D306007047043F3E60274E0EE0C046E0
:10163000D4160000620204756D696E0001CFB042DD
:1016400000D806007047043F3E60204E00B5FEF70C
:10165000C4FE01688268914203D140CFFEF7B1FD1C
:1016600000BD062A01D1FFF7F1FB0168282901D14D
:10167000FFF7ECFBFEF71BFFFEF7EEFEC90002686A
:10168000043F3E60094E0E43164301F050FD01F049
:101690004EFD043F3E600E4E0E43164301F047FDE3
:1016A000FEF78FFD00BD0000002800008042000012
:1016B00028000020804100000020000000E0000021
:1016C00000DB000000DC000000D8000000D30000B8
:1016D00000460000141700000000046D6F766500DE
:1016E00007B5310040CF320040CF00290FD0B242C1
:1016F0000DD006D3013E013A705C50540139FBD144
:1017000005E030781070013601320139F9D140CF4F
:1017100007BDC0463817000000000466696C6C0005
:10172000300040CF310040CF002902D00139705441
:10173000FCD140CF7047C04678170000200201401E
:1017400036687047043F3E60994E00B5FEF73BFE99
:101750000368282B08D143687C21194009010E43F6
:101760007C218B43FEF7B3FDDB001E43FEF7B8FE82
:101770001E4301F0DCFC00BDD01700002002012157
:1017800003CF30600E007047043F3E60894E00B5C5
:10179000FEF723FE0368282B09D143687C211940FA
:1017A00009010E437C218B43FEF791FD0360DB00B2
:1017B0001E438368282B02D1C368FEF77CFD1E43BD
:1017C00001F0B5FCFEF7F7FCFEF7F5FC00BDC046E6
:1017D000081800002002022B210003CF32681218E3
:1017E00032600E00704700B5FEF7F7FDFFF7F8FA1C
:1017F000FFF7A8FFFFF77FFB00F02BFBFFF726FBAF
:10180000FFF7C2FF00BDC0464C180000200202686E
:1018100040003688704700B5FEF7D5FD043F3E60B6
:10182000654E0368282B08D143683E2119404901C1
:101830000E433E218B43FEF74AFDDB001E43FEF7BD
:101840004FFE1E4301F073FC00BDC046A41800000B
:1018500020020268210003CF30800E00704700B5DF
:10186000FEF7BBFD043F3E60544E0368282B09D1B0
:1018700043683E21194049010E433E218B43FEF748
:1018800026FD0360DB001E438368282B02D1C3685A
:10189000FEF711FD1E4301F04AFCFEF78CFCFEF73B
:1018A0008AFC00BDDC180000200203682B2103CF56
:1018B0003288121832800E00704700B5FEF78DFD99
:1018C000FFF78EFAFFF7A7FFFFF715FB00F0C1FA4D
:1018D000FFF7BCFAFFF7C3FF00BDC04620190000A8
:1018E0002002026340003678704700B5FEF76BFDBA
:1018F000043F3E60324E0368282B08D143681F2105
:10190000194089010E431F218B43FEF7E0FCDB00E9
:101910001E43FEF7E5FD1E4301F009FC00BDC04675
:101920007819000020020263210003CF30700E00FE
:10193000704700B5FEF751FD043F3E60214E03683D
:10194000282B09D143681F21194089010E431F210B
:101950008B43FEF7BCFC0360DB001E438368282B2F
:1019600002D1C368FEF7A7FC1E4301F0E0FBFEF7BF
:1019700022FCFEF720FC00BDC81900002002036312
:101980002B2103CF3278121832700E00704700B549
:10199000FEF723FDFFF724FAFFF7A7FFFFF7ABFAE7
:1019A00000F057FAFFF752FAFFF7C3FF00BD00003F
:1019B0000068000000600000008800000080000057
:1019C0000078000000700000081A00002002046285
:1019D0006973210003CF3268024332600E00704702
:1019E00000B5FEF7FAFCFFF7FBF9FFF7ABFEFFF7D8
:1019F00082FA043F3E60AB4EFFF727FCFFF726FA62
:101A0000FFF7C2FE00BDC046481A00002002046273
:101A10006963210003CF3268824332600E00704751
:101A200000B5FEF7DAFCFFF7DBF9FFF78BFEFFF7F7
:101A300062FA043F3E609C4EFFF703FCFFF706FA94
:101A4000FFF7A2FE00BDC046881A000020020478FD
:101A50006F72210003CF3268424032600E0070473F
:101A600000B5FEF7BAFCFFF7BBF9FFF76BFEFFF717
:101A700042FA043F3E608D4EFFF7E7FBFFF7E6F9C1
:101A8000FFF782FE00BDC046BC1A000020020462BF
:101A90006974400001CF36680640013EB641F64306
:101AA000704700B5FEF799FCFFF74CFE043F3E601F
:101AB0007F4EFFF7CAFBFFF716FC00BDFC1A0000C3
:101AC000200205686269732103CF328802433280A5
:101AD0000E00704700B5FEF780FCFFF781F9FFF7B5
:101AE0009AFEFFF708FA043F3E606E4EFFF7ADFB2B
:101AF000FFF7ACF9FFF7B3FE00BDC0463C1B00008A
:101B0000200205686269632103CF328882433280F4
:101B10000E00704700B5FEF760FCFFF761F9FFF7B4
:101B20007AFEFFF7E8F9043F3E605F4EFFF789FB5E
:101B3000FFF78CF9FFF793FE00BDC0467C1B000049
:101B400020020568786F722103CF328842403280CC
:101B50000E00704700B5FEF740FCFFF741F9FFF7B4
:101B60005AFEFFF7C8F9043F3E60504EFFF76DFB89
:101B7000FFF76CF9FFF773FE00BDC046B01B000015
:101B8000200205686269744001CF36880640013E34
:101B9000B641F643704700B5FEF71FFCFFF73BFE6A
:101BA000043F3E60424EFFF750FBFFF79CFB00BD39
:101BB000F01B0000200205636269732103CF3278B5
:101BC000024332700E00704700B5FEF706FCFFF7C7
:101BD00007F9FFF78AFEFFF78EF9043F3E60314EAA
:101BE000FFF733FBFFF732F9FFF7A3FE00BDC04656
:101BF000301C0000200205636269632103CF327844
:101C0000824332700E00704700B5FEF7E6FBFFF727
:101C1000E7F8FFF76AFEFFF76EF9043F3E60224ED9
:101C2000FFF70FFBFFF712F9FFF783FE00BDC04679
:101C3000701C000020020563786F722103CF327898
:101C4000424032700E00704700B5FEF7C6FBFFF74A
:101C5000C7F8FFF74AFEFFF74EF9043F3E60134E08
:101C6000FFF7F3FAFFF7F2F8FFF763FE00BDC04697
:101C7000B41C0000200205636269744001CF36780D
:101C80000640013EB641F643704700B5FEF7A5FB9E
:101C9000FFF72BFE043F3E60054EFFF7D6FAFFF735
:101CA00022FB00BD004300008043000040400000D4
:101CB00000400000501D000000000768666C617362
:101CC0006821300040CF310040CF574B984224D399
:101CD000564B984221D2564B194099421CD00122B2
:101CE0000240002A19D102889A4216D1514A012392
:101CF00013600223034004D05840038809041943A9
:101D000001E04D4B194301604C4A13680120184013
:101D1000FBD0484A00231360704700F01BFD2A5790
:101D2000726F6E672061646472657373206F7220D6
:101D30006461746120666F722077726974696E677E
:101D400020666C61736820210A0002F07FFCC046A7
:101D5000901D000000000E666C617368706167651D
:101D60006572617365000FB5300040CF2E4B98420D
:101D70000CD3304A02231360314A10602F4A136893
:101D800001201840FBD02B4A002313600FBDC04632
:101D90000C1E000000000A6572617365666C617359
:101DA0006800214872B62149214A038893421CD019
:101DB000043F3E600600043F3E6000F0CBFC10454F
:101DC0007261736520626C6F636B20617420200008
:101DD00000F038FD00F0BEFC0C2066726F6D2046EE
:101DE0006C6173680A00FFF7BEFF02308842DCD1E5
:101DF00000F0B0FC1246696E69736865642E20526B
:101E00006573657420210A0002F0BCFC441E0000CA
:101E100000000E6572617365666C61736866726F4F
:101E20006D00300040CFBDE7005000000000010011
:101E3000FFFF000004E501400000FFFF00E4014057
:101E400008E50140701E00006202012B01CF361828
:101E5000704700B5FEF7C1FA043F3E60CE4E043F26
:101E60003E60CE4E8168282912D1FEF7EFFF0FE0C9
:101E7000D81E00006202012D01CF861B704700B5FD
:101E8000FEF7ABFA043F3E60C54E043F3E60C54ED0
:101E9000FEF7E2FA016828290ED14168FF290BD824
:101EA00040CFFEF7EDFA0E43816809020E4301F0C0
:101EB0003EF9FEF780F900BD0437FEF7C3FA890149
:101EC0008268D2000E431643FEF775F9FEF708FB51
:101ED0001E4301F02CF900BDF01E0000610202312A
:101EE0002D00013E7047043F3E60AF4E3CE0C046CF
:101EF000081F0000610202312B0001367047043FC9
:101F00003E60AA4E30E0C046201F0000610202324F
:101F10002D00023E7047043F3E60A54E24E0C046BF
:101F2000381F0000610202322B0002367047043F66
:101F30003E60A04E18E0C046501F000061020563DD
:101F4000656C6C2B04367047043F3E609A4E0BE084
:101F5000801F00006102066E65676174650076424D
:101F60007047043F3E60954E00B5FEF72CFA0168BD
:101F7000C9000E43FEF7B4FA1E4301F0D8F800BDC5
:101F8000981F00006102036E6F74F6437047043FB0
:101F90003E608B4EE8E7C046B01F0000610203734D
:101FA000687276087047043F3E60864EDCE7C046A4
:101FB000C01F000061020373686C7600704706E082
:101FC000D81F0000610202322A0076007047043FE9
:101FD0003E604026C8E7C046F01F0000610205636E
:101FE000656C6C73B6007047043F3E608026BBE7AB
:101FF00008200000610202322F0076107047043F73
:102000003E60714EB0E7C0464820000061020361A7
:102010006273F01736184640704700B5FEF7D3F9E3
:10202000043F3E6000260168C9000E43FEF758FADF
:102030001E4301F07CF8043F3E60644E01F077F8E7
:10204000FFF78FFF00BDC0469020000042000575DD
:102050002F6D6F64310040CF002903D1043F3E60F3
:1020600000267047012200238E4206D9003104D495
:102070005200490001D48E42FAD88E4201D3761A1A
:10208000134349085208F8D1043F3E601E007047D0
:10209000002100004200042F6D6F640000B5300085
:1020A00040CF002E1CDA764200280CDA4042043F72
:1020B0003E600600FFF7CEFF300040CF7642043F7F
:1020C0003E60060000BD043F3E600600FFF7C2FF11
:1020D000300040CF40427642043F3E60060000BDE3
:1020E000002807DA4042043F3E600600FFF7B2FFD7
:1020F000764200BD043F3E600600FFF7ABFF00BD27
:10210000142100004200036D6F6400B5FFF7C6FFA5
:1021100040CF00BD282100004200012F00B5FFF78D
:10212000BDFF043700BDC0463C21000061000465CE
:1021300076656E000120304036187047542100004B
:102140008100046261736500043F3E60204E704769
:102150000A0000006C21000000000662696E6172D6
:1021600079001B48022101607047C04684210000AD
:10217000000007646563696D616C15480A210160A0
:102180007047C04698220000000003686578104838
:1021900010210160704700000030000000180000AE
:1021A00000380000001A0000401E0000401C000023
:1021B000801E0000801C0000001D00004042000046
:1021C000C0430000400800004010000000D500009F
:1021D000FCFF03209E489F4901609F489F49016082
:1021E00070479F480068FF21084001281DD19D4885
:1021F00000680F21084018D19B480068F021084072
:1022000013D19A480068F021084000D1E2E79748CE
:102210000068F0210840102800D1DBE793480068EF
:10222000F0210840302800D1D4E7704700B5FFF70F
:10223000D8FF8F48026803210A4302608D490020BD
:1022400008608D49012008608A490B680120184008
:10225000FBD08A49402008608949012008608949EB
:102260000C2008608849062008608849082008601A
:102270008749884808608849042008608749012008
:102280000860874901200860864900200860864967
:102290001420086000BDC046B42200008100096817
:1022A0006F6F6B2D656D6974043F3E607F4E7047A4
:1022B000AA230000D0220000810008686F6F6B2DF8
:1022C0006B657900043F3E60794E7047D62300006D
:1022D000F022000081000A686F6F6B2D656D6974D4
:1022E0003F00043F3E60734E704708240000C04624
:1022F0000C230000810009686F6F6B2D6B65793FBF
:10230000043F3E606C4E7047362400002C230000D2
:1023100081000A686F6F6B2D706175736500043FF3
:102320003E60664E704732470000C04644230000BE
:10233000000004656D6974000FB55C4800F029F871
:102340000FBDC046582300000000036B65790FB530
:10235000574800F01EF80FBD6C2300000000056513
:102360006D69743F534800688746C046802300006B
:102370000000046B65793F004F4800688746C046FF
:102380009823000000000570617573654B48006874
:10239000874600688746C046C423000000000B73D0
:1023A000657269616C2D656D697400B500F02CF87B
:1023B000002E40CFFAD0424A002010603A4A1670F0
:1023C00040CF00BDF423000000000A73657269610C
:1023D0006C2D6B65790000B500F02DF8002E40CF14
:1023E000FAD0304A00201060043F3E60354A16782B
:1023F00000BDC0462424000000000C7365726961B2
:102400006C2D656D69743F0000B5FFF7BFFF043F99
:102410003E6000262A4A11680120014000D0F643A0
:1024200000BDC046C824000000000B7365726961DE
:102430006C2D6B65793F00B5FFF7A8FF043F3E6048
:102440000026184A11680120014000D0F64300BD63
:1024500004050040DFFF07C0186C0040008000004A
:10246000E00F00F0E40F00F0EC0F00F0E80F00F0D8
:102470002405004000010040000000400805005015
:1024800018070050200700500C250040142500407C
:102490002425004000E0D70100250040082000402E
:1024A00000200040082100401C250040F8FF0320C8
:1024B000F4FF0320F0FF0320ECFF0320E8FF0320DC
:1024C0001C21004018250040EC2400000000076398
:1024D00065787065637400B5386801B401303860A0
:1024E00000F00BF801BC067040CF00BD6425000071
:1024F0000000066163636570740000B502CF0139A6
:102500000022FFF724FF300040CF7F2809D0202889
:1025100019D2092816D00A281FD00D281DD0082846
:10252000EFD1002AEDD000F015F903082008002AA9
:10253000E7D0885C013A80230340E2D04023034087
:10254000F5D0DEE72020B242DBD2043F3E60060039
:10255000FFF7F2FE01328854D3E7160000F0A8F826
:1025600000BDC04678250000400003746962043F46
:102570003E602B4E7047C046902500008100033E10
:10258000696E043F3E60274E704700000000C04661
:10259000B825000082000E63757272656E742D732B
:1025A0006F7572636500043F3E601F4E7047000008
:1025B0000000C4000020C046D425000000000973BC
:1025C0006574736F75726365174802CF066041606A
:1025D00040CF7047F4250000000006736F757263EA
:1025E0006500043F3E60104E043F706838603668F6
:1025F0007047C0462C260000000005717565727991
:102600000FB5084800210160FFF7B1FF043F3E60AD
:10261000043F3E60C826FFF770FFFFF7D5FF0FBDF0
:10262000C4000020E4FF0320DCFF03207C26000020
:10263000000007636F6D706172650FB5310040CFA8
:1026400001CF884202D040CF00260FBD02CF002824
:1026500010D001380A5C335C412A02D35B2A00D2D5
:102660002032412B02D35B2B00D220339A42EED092
:1026700000260FBD0026F6430FBDC0469026000081
:1026800000000263720000B500F064F8010A00BDAA
:10269000A4260000000002626C00043F3E60202679
:1026A0007047C046B826000000000573706163657E
:1026B000043F3E6020263FE6D82600000000067357
:1026C00070616365730000B5002E03DDFFF7F0FF56
:1026D000013EFBD140CF00BDE82600005000065B64
:1026E000636861725D0005E000270000000004637C
:1026F0006861720000B501F02BFC40CF367800BD58
:102700001027000050040128043F3E60292606E0FF
:102710002C2700005004015C043F3E60002600B5F9
:1027200001F020FC043740CF00BDC04674270000F4
:102730003000022E22009F4800B5043F3E60060094
:1027400000F0F8F9043F3E60222601F00BFC00F097
:102750002EFD00BD0AB4043F3E607646013E33784C
:102760000121013319405B187146C9188E460ABC15
:102770003CE0C0469C2700003000026322008E48E7
:10278000DAE7043F3E607646013E337801210133AB
:1027900019405B187146C9188E467047C82700005B
:1027A0003000027322008548C6E7043F3E6076464B
:1027B000043F3E60013E36780121731C19405B18CE
:1027C0007146C9188E467047E02700000000056377
:1027D0006F756E740136043F3E60013E3678704777
:1027E00008280000000005637479706501B5307831
:1027F000002807D00136043F3E603678FFF79CFD85
:102800000138F7D140CF01BD382800000000047422
:1028100079706500310040CF300040CF00B500290D
:1028200008D00022043F3E60865CFFF785FD013240
:102830009142F7D100BDC046742800000000046832
:1028400065782E0007B5310040CF20200F220438D4
:10285000043F3E600E00C6401640092E01D93736AF
:1028600000E03036FFF768FD0028F0D1FFF720FFC9
:1028700007BDC04684280000000003682E731FB502
:102880004F4C0EE094280000000003752E731FB516
:102890004C4C06E0142900000000022E73001FB506
:1028A000494C4A49C91B8908494A106803B40A209F
:1028B0001060FFF74FFF08537461636B3A205B00B1
:1028C000043F3E600E0001F02BFDFFF743FF025D69
:1028D000200003BC3E4A106000290AD03D4A10681F
:1028E00006B4043F3E600600A04706BC043A013926
:1028F000F5D1FFF72FFF0620544F533A2000043F35
:102900003E603600A047FFF725FF04202A3E0A005C
:102910001FBDC046D8290000000005776F726473A0
:1029200000B5FFF717FF010A00F099FEFFF712FF4D
:1029300009416464726573733A20043F3E60FFF797
:1029400081FFFFF707FF064C696E6B3A2000043FDA
:102950003E603668FFF776FFFFF7FCFE07466C61C6
:1029600067733A20043F3E60B688FFF76BFFFFF7BE
:10297000F1FE06436F64653A2000B01D00F0AAFE28
:10298000043F3E600600FFF75DFFFFF7E3FE064EE3
:10299000616D653A2000043F3E600636FFF726FF72
:1029A000FFF7D8FE010A00F072FE300040CFBDD024
:1029B00040CF00BD5427000082270000AA27000056
:1029C000452800000F430000214300008C02002036
:1029D000FCFF032088020020282B0000000010725A
:1029E000656769737465726C69746572616C2C00DB
:1029F0003FB5A64B3868184098420FD13868C0439D
:102A0000386040B400F00DF8043F3E60A04E01BCB9
:102A10000643C000064300F08AFB3FBD00F001F80A
:102A20003FBD00B5350040CF2900C90029432D0224
:102A300098480543FF2300223000D040984301D03E
:102A40000132F9E73000D04018402843043F3E608F
:102A5000060000F06CFB9048054318009040864348
:102A600010D000243000E040984301D00134F9E751
:102A7000101B043F3E600E008001064300F057FB30
:102A80002200DFE7002A06D0043F3E600E009201DC
:102A9000164300F04CFB40CF00BD1FB5310040CFC6
:102AA0007E4C0C43C9000C434901300040CF020E5C
:102AB000FF231A40774B0B431343043F3E601E0035
:102AC00000F035FB043F3E60260000F030FB020CB6
:102AD000FF231A40724B0B431343043F3E601E001A
:102AE00000F025FB043F3E60260000F020FB020AB8
:102AF000FF231A406A4B0B431343043F3E601E0002
:102B000000F015FB043F3E60260000F010FB0200C1
:102B1000FF231A40624B0B431343043F3E601E00E9
:102B200000F005FB1FBDC046982B000000000563A8
:102B3000616C6C2C0FB5330000F090FE300040CF7C
:102B40001B1A043B5749194000290ED0564A91429E
:102B50000BD00136043F3E600026FFF749FF043FDB
:102B60003E60524E00F0E3FA0FBD40CF5B08504884
:102B7000504919400843DB0A4F49194009040843EA
:102B80009B0A0121194089060843043F3E60060064
:102B900000F0FDFA0FBDC046CC2B00000000086C11
:102BA00069746572616C2C0000B5043F3E60434E51
:102BB00000F0BDFA043F3E60414E00F0B8FA043F19
:102BC0003E600626FFF714FF00BDC046F42B000050
:102BD0000000066372656174650000B500F03DF8A1
:102BE0002C20000213308047043F3E607646013EB1
:102BF00000BDC0464C2C0000200005646F65733E8C
:102C00002C20000213308047043F3E607646013E90
:102C10007047043F3E607646013E2A4A13682A49BF
:102C200009680220084000D10231023111600136EA
:102C3000043F3E600026FFF730FF043F3E601B4E1E
:102C400000F075FA136000F0EAF900BDD02C000026
:102C50000000073C6275696C647300B500F08AFB84
:102C600000F0FCFD0220064040CF04D1043F3E604E
:102C7000362600F05CFA043F3E60144E00F057FA2E
:102C8000043F3E60102600F0C5FA00BD0000FFFFC3
:102C9000C0430000002000000010000000020000FF
:102CA000003000000100C0FF0000C0FF80470000AE
:102CB00000F800F0FF070000FF030000043F0000E1
:102CC0003E600000000000201400002000B500005D
:102CD000DC2C00005000035B275D03E0F42C0000B7
:102CE0000000012700B501F033F900F04BFD300082
:102CF00040CF00BD2C2D0000300008706F73747041
:102D00006F6E650000B5FFF7EDFF043F3E60060003
:102D100039683E600E46FFF747FFFFF745FF043F67
:102D20003E60E34EFFF706FF00BDC046782D000071
:102D3000000007696E6C696E652C00B5DD49DE4ADE
:102D4000DE4B3088884208D0904208D0984206D0A6
:102D5000043F3E60060000F0EAF90236F1E740CF9A
:102D600000BD0EB4D44AD54B01880230914201D047
:102D70009942F9D10EBC70478C2D000000000472FE
:102D800065742C00043F3E60CB4ED0E19C2D0000CA
:102D90003000046578697400F4E7C046B42D000083
:102DA00030000772656375727365043F3E60C44E00
:102DB0003668BFE6CC2D0000810005737461746530
:102DC000043F3E60BF4E704700000000E02D000051
:102DD0000000015DBB480021C94301607047C04647
:102DE000F02D00001000015BB64800210160704723
:102DF000102E00000000013A00B5B348076000F053
:102E0000B9FAB04801210160B0480021016000BD5D
:102E10007C2E00003008013B00B5AB480168B94288
:102E20000ED0FFF797FC1520537461636B206E6F13
:102E3000742062616C616E6365642E0A01F006FCA9
:102E4000A0480068411C0ED00B2804D8043F3E6007
:102E50009F4E00F013F9043F3E60984E00F067F972
:102E600001F0FBFA04E0043F3E60934E00F05FF98E
:102E700000F0D5F893480021016000BD902E0000BD
:102E800000000765786563757465300040CF87463C
:102E9000A82E0000100009696D6D65646961746594
:102EA000043F3E601026E9E0C02E00005000066995
:102EB0006E6C696E6500043F3E602026DEE0C04611
:102EC000DC2E000010000B636F6D70696C656F6E17
:102ED0006C79043F3E603026D0E0C046F82E0000FA
:102EE00050000A302D666F6C6461626C6500043FAF
:102EF0003E604026C2E0C046142F000050000A3158
:102F00002D666F6C6461626C6500043F3E60412613
:102F1000B4E0C046302F000050000A322D666F6CBE
:102F20006461626C6500043F3E604226A6E0C046D4
:102F30004C2F000050000A332D666F6C6461626C88
:102F40006500043F3E60432698E0C046682F0000BD
:102F500050000A342D666F6C6461626C6500043F3A
:102F60003E6044268AE0C046842F000050000A35A7
:102F70002D666F6C6461626C6500043F3E6045269F
:102F80007CE0C046A02F000050000A362D666F6C12
:102F90006461626C6500043F3E6046266EE0C04698
:102FA000BC2F000050000A372D666F6C6461626CA4
:102FB0006500043F3E60472660E0C046EC2F0000FD
:102FC000000008636F6E7374616E740000B500F0EA
:102FD000D1F9FFF7E9FD043F3E60384E00F0A7F855
:102FE000FFF785FF00F01BF800BDC0461030000061
:102FF00000000932636F6E7374616E7400B500F087
:10300000B9F939683E600E46FFF7CEFDE1E7C046EC
:103010006C300000000006736D756467650000B5D4
:103020002C4801682B4A91421AD202390A882A4B4D
:103030009A4204D1043F3E60002600F078F800F088
:1030400065F826480068043F3E6006002449096888
:103050000431204A1368116000F069F8136000BD64
:1030600000F054F8043F3E60002608E0E430000021
:10307000000008736574666C6167730000B51548DD
:103080000168144A914205D2144801683143016035
:1030900040CF00BD320040CF1148006804300188A5
:1030A0000D4B994201D1110000E01143018000BD98
:1030B0005E43000000B5000000BD00007047000046
:1030C00014000020D8FF0320100000205C00002026
:1030D0002008000000000020FFFF0000200000206A
:1030E0000400002000310000410007616C69676E38
:1030F0006564012030403618022030403618704791
:1031000024310000000005616C69676E00B58C48D1
:1031100001680220014004D0043F3E60002600F018
:1031200006F800BD68310000000002682C000FB5F1
:10313000B6B284480168002902D0013100D0016094
:103140007F4801687E4A914205D2043F3E600E00EE
:10315000FEF7B7FD02E0320040CF0A80043F3E6038
:10316000022600F057F80FBD843100000000012C4A
:1031700000B5043F3E60FFF7DAFF360CFFF7D7FFDC
:1031800000BDC046A03100000000033E3C2C00B54D
:10319000043F3E60360CFFF7CAFFFFF7C8FF00BDD3
:1031A00008320000000007737472696E672C07B55F
:1031B000FF21314040CF300040CF002905D1043FEE
:1031C0003E600026FFF7B3FF07BD043F3E60067870
:1031D00036020E43FFF7ABFF0130013902290AD353
:1031E000043F3E604678360202781643FFF79FFFA1
:1031F00002300239F2E7002900D107BD043F3E60EA
:103200000678FFF794FF07BD6432000000000561F7
:103210006C6C6F744A480168494A91420FD232007F
:1032200040CF8918484A914219D3FFF793FA0B46C9
:103230006C6173682066756C6C0A01F007FA3200E5
:1032400040CF8918414A1268914208D3FFF782FAA9
:103250000952616D2066756C6C0A01F0F7F9016026
:103260007047C04688320000000009666F726765CB
:103270007472616D00B500F025F831483449016081
:1032800034483549016000BDB032000000000D63D4
:103290006F6D70696C65746F72616D3F043F3E6065
:1032A0000026274800682649884248D3F6437047DD
:1032B000D032000000000C636F6D70696C65746F34
:1032C00072616D001E4800681D49884211D3704725
:1032D0006433000000000E636F6D70696C65746F7D
:1032E000666C61736800164800681549884200D210
:1032F00070471848194902680B680A600360104853
:10330000174902680B680A6003601048006883422E
:1033100015D300B5FFF71EFA23205661726961626A
:103320006C657320636F6C6C696465207769746881
:103330002064696374696F6E6172790A00BD7047B9
:1033400000000020D8FF032000000100240000201E
:103350008C03002004000020C00000001C0000209E
:1033600018000020543400000000082863726561D2
:103370007465290000B500F0EBFD002E0ED1FFF7BB
:10338000E9F91520437265617465206E65656473A3
:10339000206E616D6520210A01F058F93868043FFC
:1033A0003E60043F386000F0A5F940CF002E40CFCA
:1033B00011D03868043F3E60043F3860FFF7CAF917
:1033C000095265646566696E6520FFF723FAFFF7A9
:1033D000C1F9022E2000FFF799FE8F4800688E4940
:1033E00088421ED28D480021016000F037FA043F68
:1033F0003E600626FFF70EFFFDF794FDFFF7D7FEB0
:10340000874801680A68874B9A4207D1824A136845
:103410001160043F3E60FFF7ABFE1360066040CFD3
:1034200012E000F01BFA7E48043F3E600668FFF79A
:103430009FFE043F3E607C4EFFF779FE78483100E6
:1034400040CF0160FFF7B3FE734801687748016021
:1034500000BDC0466C3400000000087661726961EE
:10346000626C6500043F3E60012613E08434000076
:10347000000009327661726961626C65043F3E60EA
:10348000022607E05C3500000000096E7661726973
:1034900061626C6500B5FFF76DFF5F4801685E4AC9
:1034A000914233D20F200640B20061480168891A68
:1034B000604A91420BD2FFF74DF90F4E6F742065B1
:1034C0006E6F7567682052414D0A01F0BFF80160C8
:1034D000043F3E600E00FFF767FB043F3E60564E20
:1034E000FFF725FE300040CF0200002805D00E6017
:1034F0000431FFF73DFE0138F9D1043F3E608026DC
:103500001643FFF7BBFDFFF78AFD00BD00F0A6F9EB
:103510000220064040CF04D1043F3E603626FFF72C
:1035200006FE043F3E60454EFFF731FE043F3E601D
:10353000434EFFF72CFE043F3E603F4EFFF7F7FD82
:10354000300040CF002803D0FFF712FE0138FBD136
:10355000FFF7CDFCFFF763FD00BDC0464836000015
:103560000000076275666665723A00B5FFF702FFF4
:1035700001203040361802203040361826480168B5
:10358000254A914226D22A480168891B294A91423C
:103590000BD2FFF7DFF80F4E6F7420656E6F756703
:1035A000682052414D0A01F051F80160043F3E602D
:1035B0000E00FFF7F9FA043F3E601F4EFFF7B7FD1C
:1035C000FFF7D6FD043F3E601E4EFFF757FDFFF7A5
:1035D00026FD00BD00F042F90220064040CF04D194
:1035E000043F3E603626FFF7A2FD043F3E60134EC7
:1035F000FFF7CDFD043F3E60114EFFF7C8FD043FCD
:103600003E600D4EFFF793FDFFF704FEFFF76FFCE2
:10361000FFF705FD00BD0000000000202000002095
:1036200004000020FFFFFFFFFFFF00001400002048
:10363000240000208C030020704700003E60043FFF
:1036400002367E46400100007836000000000F641C
:10365000696374696F6E61727973746172745048D2
:1036600000684F49043F3E60884201D24D4E70478A
:103670004D4E36687047C046B436000000000E64F8
:10368000696374696F6E6172796E6578740003B5F1
:1036900031684648814207D08879FF2804D00E005F
:1036A000043F3E60002603BD043F3E600026F64313
:1036B00003BDC046E836000000000A736B697073F2
:1036C0007472696E67003178013101220A408918ED
:1036D0007618704706B40178013101220A40891832
:1036E000401806BC7047C046FC3600000000046667
:1036F000696E64002E4800688746C046183700008F
:10370000810009686F6F6B2D66696E64043F3E60CF
:10371000284E704726370000BC37000000000628FE
:1037200066696E64290030B500220023350040CF61
:10373000340040CFFFF793FF1F48B188884217D06D
:10374000043F3E600636FFF745F8043F3E60260022
:10375000043F3E602E00FEF770FF002E40CF07D0E2
:10376000B01DFFF7B7FF02000B000D48824204D2E4
:10377000FFF78DFF300040CFDED01600043F3E60E3
:103780001E0030BD00B53100386803B4FFF7B2FF4A
:1037900003BC3A68002A01D100F00CFF00BD000014
:1037A00000000020C000000004000020FFFFFFFF19
:1037B000D4FF0320D4FF0320FFFF000018380000CF
:1037C000000006636A756D702C00320040CF310036
:1037D00040CF8B1B043BD849194000290DD0D74856
:1037E00081420AD0FEF7B6FF0D4A756D7020746FE6
:1037F0006F206661720A00F029FF5B10FF210B4009
:10380000134330001E0000B5CD4A13681060FFF767
:103810008EFC136000BDC046503800000000056AF1
:10382000756D702C310040CF300040CF0B1A043B37
:10383000C4491940002902D0C34A9142D2D15B1039
:10384000C24A1340C24A1343043F3E601E00DAE7F7
:10385000683800000000046865726500043F3E603F
:10386000B74E36687047C0469039000000000D66BC
:103870006C6173687661722D68657265043F3E60A5
:10388000B44E3668704700B5043F3E60B24EFFF755
:103890004EFC043F3E60B14EFFF749FC00BDDDE742
:1038A00000B500F037F839683E600E46043F3E60D0
:1038B000AB4EFFF78AFF00BD00B500F02BF839686A
:1038C0003E600E46043F3E60A64EFFF77EFF00BD01
:1038D00000B5FFF7D8FF00F01DF839683E600E46CE
:1038E000043F3E60A04EFFF770FF00BD00B500F042
:1038F00011F839683E600E46FFF794FF00BD00B531
:10390000FFF7C1FFFFF7AAFF043F3E600226FFF763
:1039100081FC00BD00B5FFF7A1FF043F3E60022619
:10392000FFF778FC00BD00B5FFF798FFFFF77AFFBF
:1039300000BD00B5FFF792FF043F3E608A4EFFF7DF
:1039400044FF00BD00B5FFF789FF043F3E60844E91
:10395000FFF73BFF00BD00B5FCF735FDFCF766FC4B
:10396000FCF769FCFCF76CFC8168282901D1FCF7A5
:1039700073FDFCF767FD043F3E607C4E09020E4379
:10398000FFF7D5FBFCF717FCFCF744FC00BDC04675
:10399000BC3900003000047468656E00052E01D14A
:1039A00040CFC0E7F1B200296ED100B5FFF756FF56
:1039B00039683E600E46FFF708FF00BDD8390000A9
:1039C000300004656C73650000B500F035F8FCF755
:1039D000CBFDFFF7E3FF00BD2C3A00003006026983
:1039E000660000B5FFF78BFF043F3E605E4E00BDF2
:1039F00000B5FCF77EFDFDF7E7FD816A002907D0E1
:103A000002B4FCF707FCFFF785FF043F3E6040BDB2
:103A1000FFF7A1FFFFF722FF043F3E600226FFF7FA
:103A2000F9FB043F3E60504E00BDC046483A0000DE
:103A3000300005616865616400B5FFF76BFF043F06
:103A40003E60052600BDC046643A000030000672A4
:103A500065706561740000B500F05CF8FFF79EFFCB
:103A600000BDC046A83A00003006057768696C655D
:103A700000B5FFF7B6FFFCF777FD00BD00B5FFF717
:103A8000B7FFFCF771FD00BDFEF764FE17537472BB
:103A90007563747572657320646F6E2774206D6131
:103AA0007463680A00F0D2FD083B0000300605751B
:103AB0006E74696C012EE7D140CF09E77047012E83
:103AC000E2D140CF00B5FDF77FFD816A00290DD01E
:103AD00002B4FCF79FFBFFF71DFF39683E600E46FE
:103AE000043F3E6040BCFFF770FE00BDFFF733FFB0
:103AF000FFF710FF39683E600E46043F3E601A4EE5
:103B0000FFF763FE00BDC0461C3B000030000561AE
:103B10006761696E012EB7D140CFE7E6703B0000C8
:103B2000300005626567696E00B5FFF7B8FE043FB7
:103B30003E60012600BD000001FFFFFF00FFFFFF08
:103B40000000002001F8FFFF00F8FFFFFF07000062
:103B500000E0000024000020002E000040CF000004
:103B600000D1000000D7000000D0000000280000B5
:103B7000883B00002002016B043F3E60029E7047BC
:103B8000043F3E608E4E0AE0B43B00002002016A12
:103B9000043F3E60009E7047043F3E60894E00B582
:103BA000FCF7FFFAFCF7DCFB03601B021E43FFF788
:103BB000BEFA00BDE03B000020020169043F3E6008
:103BC0002600704700B5043F3E602026FCF7E9FA66
:103BD000FCF7C6FB03601E43FFF7A9FA00BDC04611
:103BE000203C00003000056C6561766500B57648C4
:103BF00001683B00043F1A68043B1A6008338B429B
:103C0000F9D103B4FFF786FE03BC330040CF04397B
:103C10000B60016004390A6801320A6000BDC046C9
:103C2000343C0000200006756E6C6F6F700030BC75
:103C30007047C0466C3C00003000052B6C6F6F7005
:103C4000032E00D020E740CF00B5043F3E605F4E1A
:103C5000FFF773F8FFF730FE1AE080200006001926
:103C6000A419401B801940CF7047C046B03C0000EB
:103C70003000046C6F6F7000032E00D004E740CF5B
:103C800000B5043F3E60524EFFF757F8FFF708FEBD
:103C900000F044F94C48310040CF0160043F3E60E1
:103CA0004C4EFFF74AF800BD0134AC427047C046A5
:103CB000F83C0000300202646F0000B5043F3E6033
:103CC000454EFFF73AF840480168043F3E600E0059
:103CD000043F3E6000260760FFF7E1FD043F3E60C1
:103CE000032600BD00B500F02EF8ECE730B4340038
:103CF00040CF350040CF7047E43D00003002033F25
:103D0000646F00B5043F3E60334EFFF716F8043F82
:103D10003E60324EFFF70BFA2B480168043F3E60CD
:103D20000E00FFF7F7FD0136043F3E6001262648EE
:103D30000760FFF7B4FD043F3E60032600BD00B5F9
:103D400000F001F8E3E700B5FCF7D3FBFCF745FB17
:103D5000FCF76CFAFCF76FFAFCF772FA043F3E606E
:103D60001F4EFFF7E4F90168282907D0043F3E60A1
:103D70000426C9000E43FFF7DAF907E0043F3E606E
:103D80004668043F3E600426FEF732FE816828291B
:103D900007D0043F3E600526C9000E43FFF7C7F970
:103DA00007E0043F3E60C668043F3E600526FEF71C
:103DB0001FFEFCF700FAFCF7FEF9FCF74BFA00BD1A
:103DC00002980000009800000C0000205A3C0000FF
:103DD000A83C00002E3C0000EC3C0000AC4200007F
:103DE00030B40000043E00003000046361736500DD
:103DF00000B5FCF77EFB043F3E600026043F3E60BA
:103E0000082600BD1C3E00003000033F6F66684876
:103E10000AE0013EB64140CF7047C046BC3E0000BC
:103E20003002026F66006348082E00D02CE640CFB7
:103E300000B5043F3E600600FEF77FFFFFF76AFD16
:103E400039683E600E460136043F3E600926043F55
:103E50003E60594EFFF76BF900BD082E00D013E607
:103E600040CF00B5FCF7B9FAFCF7E0F9FCF7E3F94D
:103E7000FCF7E6F9043F3E60504EFCF7EDFA0E43C6
:103E80000268282A0DD14268FF2A07D840CF043F94
:103E90003E604B4E164309020E4304E0FCF7D2FA93
:103EA0000A00D2001643FFF742F9FCF784F9FCF749
:103EB000D1F9C3E7300040CFB0427047F43E000074
:103EC000300005656E646F66092E00D0DCE540CFDA
:103ED00000B540B440CFFFF71DFD39683E600E4687
:103EE000FFF730FD043F3E6040BC043F3E600826C3
:103EF00000BDC046443F0000300007656E6463614A
:103F00007365082E00D0BFE540CF00B5043F3E608A
:103F1000294EFFF70CF900F001F800BD00B53000A4
:103F200040CF00280DD003B401213140002903D037
:103F3000013EFFF7FEFC01E0FFF7F5FC03BC013892
:103F4000EFE700BD583F0000000005746F6B656E21
:103F5000043F3E60202605E0C83F000000000570D9
:103F60006172736510B5FEF73CFB310040CF300045
:103F700040CF144A12688418202E07D191420FD0E6
:103F8000835CB34202D101328418F7E7914207D033
:103F9000835C0132B342F9D18618361B013E01E041
:103FA0008618361B043F3C600648026010BD0000C6
:103FB000123E0000B43E000040CF000080420000EE
:103FC00000280000E4FF0320084000000000056412
:103FD00069676974D44B1B68303E0BD30A2E0BD330
:103FE000073E0A2E06D3242E06D3203E0A2E01D3E6
:103FF000242E01D3002670479E42FBD2043F3E6030
:104000000026F6437047C046144100000000066ECB
:10401000756D626572003FB5310040CF701E01269C
:10402000012204B4C04B1B680024002500293CD0A9
:104030000130013902782D2A04D101B00022D24387
:1040400004B4F3E7232A01D10A23EFE7242A01D19C
:104050001023EBE7252A01D10223E7E72E2A01D11D
:104060000226E3E72C2A36D0043F3E601600FFF715
:10407000B3FF002E40CF2BD0043F3E602600043F0C
:104080003E602E00043F3E601E00043F3E6000265E
:104090000FB4FCF71EFC0FBC350040CF340040CFFE
:1040A0000022A419554140CFC0E704BC002A04D522
:1040B0000022E443ED430134554133002600012B37
:1040C00002D0043F3E602E00043F3E601E003FBD14
:1040D00001B000263FBD2500002402260029E4D0BF
:1040E000425C01392E2AF9D0043F3E601600FFF7EA
:1040F00073FF002E40CFEBD0043F3C60043F3E6096
:104100001E000FB4FCF799FC0FBC340040CF40CF29
:10411000E4E7C046384100000000062E6469676984
:1041200074000A2E01D230367047242E01D2373661
:10413000704723267047C0467041000000000468A5
:104140006F6C6400330040CF784801783F290DD26E
:10415000013101704018012907D00138027801307F
:104160000270013801390129F7D103707047C04648
:1041700090410000000005686F6C643C330040CF44
:104180006A4801783F2902D20131017043547047D7
:10419000A84100000000047369676E00002E01D47E
:1041A00040CF70472D26CDE7BC4100000000022320
:1041B0003E005E480678013038607047D441000008
:1041C00000000366235310B5202400F008F8013CDA
:1041D000FBD110BDF841000000000266230000B5CD
:1041E000043F3E60504E3668FCF75FFBFFF799FFD7
:1041F000FFF7C4FF00BDC0461442000000000223C8
:10420000530000B500F00AF8002EFBD138680028F2
:10421000F8D100BD404200000000012300B5043F7A
:104220003E60414E3668043F3E600026FCF725FCA8
:10423000FCF79AF940CFFFF774FFFFF783FF00BD4B
:10424000544200000000023C230038480021017065
:104250007047C04668420000000002662E00043F1E
:104260003E60202605E0C046B8420000000003661C
:104270002E6E00B510B4340040CFFCF723FEFCF7DF
:1042800093FA043F3E600026FFF7DFFFFFF7B9FF18
:1042900040CF2C26FFF772FF002C03D0FFF79FFFC3
:1042A000013CFBD110BC40CFFFF778FF043F3E60DC
:1042B000043F3E601EE0C046D0420000000003758F
:1042C000642E00B5FFF7C1FFFFF79BFF12E0C04669
:1042D00004430000000002642E0000B5FCF7F2FD6C
:1042E000FCF762FAFFF7B1FFFFF78BFFFCF7FDFD6C
:1042F000FFF754FFFFF75DFFFEF78CFAFEF7D8F9E2
:1043000000BDC04618430000000002752E00043FA7
:104310003E600026D5E7C046E04400000000012EC4
:10432000043F3E60F617D8E7FCFF0320840000201E
:1043300030B5D64C2568002D01D13D00256030BD3B
:1043400030B5D24C3D00256030BD30B5CF4C002596
:10435000256030BDCD4B1B68DB1B9B08704700B54B
:10436000310040CFCA48084002D000F0A1F800BD9B
:10437000C848084001D1FDF7E5F8320040CFFFF70B
:10438000D7FFC548084003D0043F3E60160000BD7B
:10439000FFF7E0FF8020084006D14020084009D008
:1043A0000F200840834205D3043F3E601600FEF70D
:1043B0006CFD00BDB948084014D0FBF796FE043FE1
:1043C0003E601600043F3E600E0000F030F8100022
:1043D000FEF7C7FC421CB2489047FFF7B1FFFBF75E
:1043E00093FE00BDFBF781FE043F3E601600043FD4
:1043F0003E600E0000F01BF8FBF70CFFFFF7A5FF77
:10440000A848084001D1FCF774F8043F3E6016004C
:1044100010220A4002D0FEF738FD00BD20220A40DB
:1044200002D0FEF78AFC00BDFEF784FB00BD0FB58D
:10443000320040CF330040CF9B480168062907D2A5
:10444000062041439948401803801B0C438082801A
:1044500095480168013101600FBD0FB592480168B0
:1044600006291ED8914801391CD0043F3E600E0039
:10447000FEF75DFE043F3E600688FEF758FE043FEF
:104480003E604688FEF753FE043F3E608688FEF796
:104490004EFE06300139EDD1043F3E607C4EFEF702
:1044A000EDFD0FBD043F3E604026FEF7E7FD0FBD6A
:1044B00000B5300040CFFEF754FC01880230043FC5
:1044C0003E600688428812041643043F3E60868898
:1044D00003B4FFF744FF03BC06300139EFD100BD40
:1044E000284500000000086576616C756174650000
:1044F00000B5FEF776F801CF01B440B440CF6C4868
:10450000016802B400210160FEF75EF800F014F8C3
:10451000674802BC0160043F3E6040BC01BC043FF0
:104520003860FEF751F800BD24460000000009691C
:104530006E7465727072657400B55E4887420BD9FF
:10454000FEF708F910537461636B20756E64657231
:10455000666C6F770A0079E0574887420AD2FEF707
:10456000F9F80F537461636B206F766572666C6F38
:10457000770A6BE0FFF7DCFEFFF7EAFC002E02D1C2
:10458000043740CF00BD3868043F3E60043F3860C8
:10459000FFF7B0F8310040CF320040CF002A15D1EC
:1045A00038683100FCF7CEFFFFF735FD320040CF11
:1045B000002AC2D1FEF732F9FEF7CCF80C206E6F5C
:1045C0007420666F756E642E0A003FE03B4B1B68DB
:1045D000002B1CD1FFF7B9FE30230B40302B0ED13E
:1045E000FEF718F9FEF7B6F81220697320636F6DB5
:1045F00070696C652D6F6E6C792E0A0026E00437A9
:1046000040CF043F3E601600FEF73FFC95E70437BD
:1046100040CF043F3E601600043F3E600E00FFF7AF
:104620009EFE8AE740460000810009686F6F6B2D8F
:1046300071756974043F3E60214E704778460000F2
:10464000D446000000000471756974001D48854659
:10465000184F1D480A2101601848002101600B48CD
:104660000160FBF71CFE1248016018480160184900
:104670004160134800688746FDF7C2FFFFF75CFF03
:10468000FEF768F805206F6B2E0AF5E7080000209A
:1046900000100000000400000020000000020000E4
:1046A00028000020000800005C00002060000020BE
:1046B000E4FF03208C0200208C010020D8FF03209F
:1046C000D0FF03208C030020FCFF0320DCFF03202D
:1046D000C4000020F046000000000565696E743FCC
:1046E000043F3E60EFF31086013EB6417047C0467E
:1046F0000047000020000465696E740062B67047D0
:104700001047000020000464696E740072B67047A0
:10471000284700002000046970737200043F3E6067
:10472000EFF305867047C046344700000000036E73
:104730006F70704778470000000009756E68616E01
:10474000646C656400B5FEF705F814556E68616E1B
:10475000646C656420496E746572727570742000B3
:10476000043F3E60EFF30586FEF76CF8FDF7F2FFBD
:1047700002210A0000BDC0468C47000000000572FF
:1047800065736574FA48FB490160C046B047000094
:1047900081000B6972712D7379737469636B043FC7
:1047A0003E60F54E704744470000F3480068874676
:1047B000D44700008100096972712D6661756C74BF
:1047C000043F3E60ED4E704744470000EB480068F0
:1047D0008746C046FC47000081000E6972712D6358
:1047E0006F6C6C656374696F6E00043F3E60E44EED
:1047F000704744470000E2480068874620480000B0
:104800008100096972712D706F776572043F3E6097
:10481000DC4E704744470000DA4800688746C046CF
:10482000444800008100096972712D726164696FEA
:10483000043F3E60D44E704744470000D2480068B1
:104840008746C046684800008100086972712D756E
:1048500061727400043F3E60CC4E704744470000D4
:10486000CA4800688746C0468C4800008100086935
:1048700072712D7370693000043F3E60C44E704702
:1048800044470000C24800688746C046B048000060
:104890008100086972712D7370693100043F3E60B8
:1048A000BC4E704744470000BA4800688746C0467F
:1048B000D448000081000A6972712D6770696F74B5
:1048C0006500043F3E60B44E704744470000B24864
:1048D00000688746F44800008100076972712D6105
:1048E0006463043F3E60AD4E704744470000AB48F0
:1048F00000688746184900008100086972712D74AC
:10490000696D3000043F3E60A54E7047444700008B
:10491000A34800688746C0463C49000081000869FA
:1049200072712D74696D3100043F3E609D4E704779
:10493000444700009B4800688746C0466049000025
:104940008100086972712D74696D3200043F3E6008
:10495000954E704744470000934800688746C0461C
:10496000844900008100086972712D7274633000FF
:10497000043F3E608D4E7047444700008B480068FE
:104980008746C046A84900008100086972712D74ED
:10499000656D7000043F3E60854E704744470000DF
:1049A000834800688746C046C849000081000769FF
:1049B00072712D726E67043F3E607E4E70474447B1
:1049C00000007C4800688746E849000081000769CC
:1049D00072712D656362043F3E60774E70474447B5
:1049E00000007548006887460C4A000081000B698A
:1049F00072712D63636D5F616172043F3E606F4E43
:104A00007047444700006D48006887462C4A000004
:104A10008100076972712D776474043F3E60684EAF
:104A2000704744470000664800688746504A0000C7
:104A30008100086972712D7274633100043F3E6019
:104A4000604E7047444700005E4800688746C04695
:104A5000744A00008100086972712D7164656300F9
:104A6000043F3E60584E7047444700005648006877
:104A70008746C046984A000081000A6972712D6C11
:104A800070636F6D7000043F3E60504E7047444746
:104A900000004E4800688746BC4A00008100086953
:104AA00072712D7377693000043F3E60484E704745
:104AB00044470000464800688746C046E04A000078
:104AC0008100086972712D7377693100043F3E607F
:104AD000404E7047444700003E4800688746C04645
:104AE000044B00008100086972712D7377693200F0
:104AF000043F3E60384E7047444700003648006827
:104B00008746C046284B00008100086972712D73EA
:104B100077693300043F3E60304E704744470000E1
:104B20002E4800688746C0464C4B0000810008694B
:104B300072712D7377693400043F3E60284E7047D0
:104B400044470000264800688746C046E84B0000FE
:104B50008100086972712D7377693500043F3E60EA
:104B6000204E7047444700001E48006887460000FA
:104B70000CED00E00400FA05CCFF0320C8FF032081
:104B8000C4FF0320C0FF0320BCFF0320B8FF0320A5
:104B9000B4FF0320B0FF0320ACFF0320A8FF0320D5
:104BA000A4FF0320A0FF03209CFF032098FF032005
:104BB00094FF032090FF03208CFF032088FF032035
:104BC00084FF032080FF03207CFF032078FF032065
:104BD00074FF032070FF03206CFF032068FF032095
:104BE00064FF032060FF032000500000FFFF182D2A
:104BF0002D2D20466C6173682044696374696F6E63
:104C0000617279202D2D2D00FDF710FB514885464E
:104C1000514F2A2651484F4901605148514901607E
:104C2000043F3E604F4E504DB188504B994224D0C6
:104C30004F4B0B400AD0B01DFEF74CFDFEF791F82C
:104C40000388408800040343ED1A16E080230B40DC
:104C500013D00F23194089006D1AB01DFEF73AFDDD
:104C6000FEF77FF8043F3E600600043F3E602E00E2
:104C7000043F3E600E00FCF733FDFEF708FD3000F8
:104C800040CFD1D03B48066040CF3B4805603B4811
:104C90003B49364A884204D0023803889342F9D00F
:104CA000023038490860FDF755FD464D656372696D
:104CB00073702D5374656C6C61726973205241205E
:104CC000322E342E372077697468204D3020636F80
:104CD000726520666F72204D6963726F626974201D
:104CE0006279204D61747468696173204B6F6368E9
:104CF0000A00FDF72FFD2C4D6F646966696564201D
:104D0000666F72206E524635313832322062792019
:104D10004A6F686E204875626572747320284A492C
:104D200042290A00184800210160FBF7B8FA043F45
:104D30003E60164E043F3E600426FEF7DBFC40CF8B
:104D4000002E02D0FEF7A1F893E440CF7EE4696E16
:104D5000697400008C0300208C02002000000020F9
:104D600004000020C000000000000420FFFF00003D
:104D7000000100001C0000202400002000000100B1
:104D80000050000018000020080000204E4D0000D8
:10500000185000004000065F46414C534500043FE5
:105010003E60002670470000305000004000055FF1
:1050200054525545043F3E600026F6437047000049
:10503000485000004000096D61736B42797465301F
:10504000043F3E60FF2670476450000040000B6D37
:1050500061736B42797465333231043F3E60FF26E1
:10506000F64370478450000040000A6D61736B4244
:10507000797465313000043F3E60FF263602FF360A
:10508000704700009C5000004000084153434949CC
:105090005F637200043F3E600D267047B45000000D
:1050A00040000841534349495F6C6600043F3E603D
:1050B0000A267047D450000040001141534349492B
:1050C0005F6772617665416363656E74043F3E603D
:1050D00060267047F050000040000B41534349499F
:1050E0005F74696C6465043F3E607E267047000013
:1050F0001851000020180576617240623668FF235F
:105100001E4070470300401700002002FF0000000F
:105110000020BA1000006202345100002008072B62
:105120002B766172406233685B1C33603668FF2304
:105130001E4070474C5100002008062B2B766172F0
:10514000400033685B1C3360366870477C51000058
:10515000201806766172403262003668FF231B0217
:10516000FF331E4070470300401700002002FFFF7E
:1051700000000020BA10000062020000A8510000E8
:105180002018092B2B76616C75654062761CFF2315
:105190001E4070470300FA1E00006102FF0000007D
:1051A0000020BA1000006202DC51000020180A2B17
:1051B0002B76616C756540326200761CFF231B0202
:1051C000FF331E4070470300FA1E00006102FFFF1C
:1051D00000000020BA10000062020000005200002F
:1051E00020180776616C75655F62FF231E4070476B
:1051F0000200FF0000000020BA1000006202000060
:105200002052000020080576617221623368FF2277
:10521000D243134004CF1343336040CF70470000A4
:105220004852000020180576617230210023336057
:1052300040CF70470300000000000020440E000033
:1052400062028017000020027052000020180576CC
:10525000617231210123336040CF704703000100A8
:1052600000000020440E00006202801700002002AF
:10527000A85200002018067661722B2B210033689B
:105280005B1C336040CF70470500DA0D00006102FF
:10529000401700002002FA1E00006102440E0000C8
:1052A0006202801700002002E052000020180676FB
:1052B00061722D2D210033685B1E336040CF704733
:1052C0000500DA0D00006102401700002002E21E16
:1052D00000006102440E00006202801700002002FC
:1052E000185300002018067661722D3221003368B1
:1052F0009B1E336040CF70470500DA0D000061024D
:10530000401700002002121F00006102440E00003E
:105310006202801700002002345300002008067645
:1053200061722B2B400033683268521C32601E467B
:10533000704700005453000020180A7661724164DF
:10534000647240623000367870470100E618000051
:10535000200200007C53000020180A76617241642C
:10536000647240623100761C367870470200FA1E83
:1053700000006102E618000020020000A8530000AF
:1053800020180A766172416464724062320002360B
:105390003678704703000200000000204C1E000019
:1053A0006202E61800002002D453000020180A769A
:1053B000617241646472406233000336367870472C
:1053C00003000300000000204C1E00006202E618EB
:1053D00000002002F853000020180769764C69731A
:1053E000744008CF9E193668704702004C1E0000BA
:1053F00062024017000020023054000020180869A3
:10540000764C69737440620008CF9E193668FF239A
:105410001E40704704004C1E00006202401700004E
:105420002002FF0000000020BA100000620200000D
:105430005454000020080A69762B2B4C6973744081
:105440006200B6193668FF231E4008CF5B1C043F7C
:105450003B6070477C54000020180769764C6973E4
:10546000742108CF9E1908CF336040CF70470200E7
:105470004C1E00006202801700002002B0540000A1
:1054800020180869764C69737421620008CF9E1950
:105490003368FF22D243134004CF1343336040CF1D
:1054A000704702004C1E000062020C5200002008EF
:1054B000E854000020180869764C697374302100A4
:1054C00008CF9E190023336040CF704704004C1E64
:1054D00000006202000000000020440E0000620292
:1054E00080170000200200002055000020180869E5
:1054F000764C69737431210008CF9E190123336003
:1055000040CF704704004C1E000062020100000002
:105510000020440E000062028017000020020000FC
:105520004055000020080969764C6973742B2B21C3
:1055300008CF9E1933685B1C336040CF7047000072
:105540006055000020080969764C6973742D2D217F
:1055500008CF9E1933685B1E336040CF7047000050
:1055600080550000200808692B2B4C69737440009B
:1055700008CF1A68B61836681A68521C1A60704745
:10558000B8550000201809692B2B4C6973744062D0
:1055900008CF1A68B61836681A68521C1A60FF23BA
:1055A0001E4070470300705500002008FF000000F7
:1055B0000020BA1000006202D855000020080869D7
:1055C0002D2D4C697374400008CF1A68B6183668E0
:1055D0001A68521E1A607047FC55000020080869BE
:1055E0002D2D4C697374210008CF1A68B61804CFAA
:1055F00032601E68761E1E6040CF70472056000045
:10560000200808692B2B4C697374210008CF1A6895
:10561000B61804CF32601E68761C1E6040CF7047FB
:1056200064560000000009692B2B4C6973742162D9
:1056300008CF1A6892191268FF21C9430A4000B5C1
:1056400004B404CF02BC0A43043F3A60043F3B6009
:1056500008CF1A68B61804CF32601E68761C1E6028
:1056600040CF00BD8456000020180B6C6973744154
:10567000646472406230367870470100E6180000BA
:1056800020020000AC56000020180B6C69737441B6
:10569000646472406231761C367870470200FA1EEC
:1056A00000006102E618000020020000D856000049
:1056B00020180B6C69737441646472406232023664
:1056C0003678704703000200000000204C1E0000E6
:1056D0006202E618000020020457000020180B6C3C
:1056E000697374416464724062330336367870477C
:1056F00003000300000000204C1E00006202E618B8
:10570000000020022C57000020180B6C69737441B4
:1057100064647240626E08CF9E193678704702004A
:105720004C1E00006202E6180000200258570000DC
:105730002018046324406E0008CF9E19761C36782A
:10574000704703004C1E00006202FA1E0000610256
:10575000E6180000200200007057000040000841D9
:10576000534349495F6C6600043F3E600A26704718
:105770008857000040000841534349495F63720065
:10578000043F3E600D267047A457000040000B41C7
:10579000534349495F74696C6465043F3E607E26EB
:1057A00070470000C457000040000E5F454F465F41
:1057B00044454C494D4954455200043F3E607E26C5
:1057C00070470000DC5700004000096D61736B42B8
:1057D00079746530043F3E60FF267047F85700003B
:1057E00040000B6D61736B42797465333231043F55
:1057F0003E60FF26F64370471858000000000D6D0C
:10580000617852616D4164647265737300B5FEF72F
:1058100035F8043E00BD00003C580000000007665B
:1058200072656552616D00B5FFF7F0FFFDF74AFD47
:10583000FEF714F808CF9E1B00BD00006C58000056
:1058400000000B73686F774672656552616D00B535
:10585000FFF7E9FFFEF764FDFCF77CFF0662797451
:1058600065732000FCF70FFF00BD00009458000096
:1058700081000961646472446C427566043F3E6055
:1058800080263603FF363602D736B6007047000052
:1058900000000000C058000081000E646C42756674
:1058A0005F6E756D436861727300043F3E608026D1
:1058B0003603FF363602D636B600704700000000C9
:1058C000E4580000810007646C4275665F69043F1C
:1058D0003E6080263603FF363602D536B600704766
:1058E000000000000C59000040010A6576616C530D
:1058F0007472696E6700043F3E6080263603FF368F
:1059000036029536B6007047000100003859000095
:1059100081000C6576616C537472696E675F690013
:10592000043F3E6080263603FF3636029436B600CA
:1059300070470000000000006859000081001373E8
:10594000746174655F636F6D70696C65746F7261AB
:105950006D3F043F3E6080263603FF3636029336A5
:10596000B6007047000000008C5900000000096478
:105970006C42756653697A6500B5FFF754FF043FC2
:105980003E600226FCF7CAFB00BD0000E0590000A3
:1059900000000D73686F77446C42756653697A65D1
:1059A00000B5FCF770FEFCF76EFEFCF7D3FE165553
:1059B000706C6F6164206275666665722073697AC7
:1059C000652069732000FFF7D7FFFEF7A9FCFCF7FD
:1059D000C1FE0662797465732E00FCF754FE00BDAB
:1059E000105A0000201805646C4275668020000380
:1059F000FF300002C0308000C36D043F3E601E4691
:105A0000704702005CFF03200020401700002002C6
:105A1000485A000000000F696E697469616C697A08
:105A200065446C42756600B5FFF7F0FEFFF7A4FF12
:105A300008CF9E1B80200003FF300002C030800092
:105A4000C66540CF00BD0000745A00000000077317
:105A5000686F774B6579043F3E6000B5FCF76CFCDE
:105A60000D2E40CF04D1043F3E600A26FCF764FCB3
:105A700000BD0000D45A00000000227570646174FB
:105A800065496D706C69656443686172436F756EDA
:105A9000745F5F6576616C537472696E6700802015
:105AA0000003FF30000280308000036D023B043FA2
:105AB0003E60043F3B6080263603FF363602953653
:105AC000B6003368FF22D243134004CF1343336040
:105AD00040CF7047785B000000001E636F7079460E
:105AE000726F6D5F646C4275665F696E746F5F653F
:105AF00076616C537472696E670080200003FF301A
:105B00000002803080000123036500B5802000037F
:105B1000FF300002C0308000C36D043F3E6080262D
:105B20003603FF363602D536B600043F3E601E46C9
:105B300008CF1A68B61836681A68521C1A60FF2314
:105B40001E40043F3E60043F3E6080263603FF3621
:105B500036029436B600043F3E6080263603FF3698
:105B600036029536B600FFF763FD0D2E40CFCDD13E
:105B7000FFF795FF00BD0000F05B0000000010651E
:105B800076616C75617465456163684C696E65002A
:105B900080200003FF300002C030800000234365F6
:105BA00000B5FFF7AAFFFCF76EFD043F3E608026BC
:105BB0003603FF3636029536B600FCF70BFEFCF7CF
:105BC00029FE043F3E6080263603FF3636029536B6
:105BD000B600FCF7FFFDFEF78BFC80200003FF30D2
:105BE0000002C0308000436D826D9342D9DB00BD5E
:105BF0009C5C0000000008646F776E6C6F6164004D
:105C000080200003FF300002C03080000023436585
:105C100000B5FCF79CFB80200003FF300002C03081
:105C20008000C36D043F3E60043F3E608026360323
:105C3000FF363602D536B600043F3E601E4608CF1A
:105C40001A68B61804CF32601E68761C1E6040CFFA
:105C50007E2E40CFDDD180200003FF300002C03017
:105C60008000436D5B1E4365C36D043F3E600D269F
:105C7000043F3E6080263603FF363602D536B60036
:105C8000043F3E601E4608CF1A68B61804CF326043
:105C90001E68761C1E6040CF00BD0000DC5C00006A
:105CA00000001E736176655F73746174655F636F76
:105CB0006D70696C65746F72616D4F72466C617363
:105CC000680000B5FDF7EAFA80200003FF3000020B
:105CD00080308000C66440CF00BD0000205D000021
:105CE000000021726573746F72655F73746174650F
:105CF0005F636F6D70696C65746F72616D4F724632
:105D00006C61736880200003FF30000280308000E7
:105D1000C36CDB4300B5002B01D0FDF7E4FA00BDF6
:105D20009C5D0000000002756C0000B5FFF7C9FF24
:105D3000FFF779FEFFF734FEFCF70CFD0E426567B6
:105D4000696E2075706C6F61643A2000FFF758FF30
